:020000040800F2
:10000000704A002061020008C3530008C14C000878
:10001000C15300080D090008E56900080000000050
:10002000000000000000000000000000A101000826
:10003000210A000800000000FD010008455B0008DF
:100040007B0200087B0200087B0200087B0200089C
:100050007B0200087B0200087B0200087B0200088C
:100060007B0200087B0200087B0200087B0200087C
:10007000710900087B0200087B0200087B0200086F
:100080007B0200087B0200087B0200081D090008B3
:10009000110900087B0200087B0200087B020008AF
:1000A0007B0200087B0200087B0200087B0200083C
:1000B0007B0200087B0200087B0200087B0200082C
:1000C0007B0200087B0200087B0200087B0200081C
:1000D0007B0200087B0200087B0200089969000887
:1000E0007B0200087B0200087B0200087B020008FC
:1000F0007B0200087B0200087B0200087B020008EC
:100100007B0200087B0200087B0200087B020008DB
:100110007B0200087B020008155C0008215C0008D7
:100120007B0200087B0200087B0200087B020008BB
:100130007B0200087B0200087B0200087B020008AB
:100140007B0200087B0200087B0200087B0200089B
:100150007B0200087B0200087B0200087B0200088B
:100160007B0200087B0200087B0200087B0200087B
:100170007B0200087B0200087B02000800000000F0
:100180007B0200087B020008DFF810D000F08AFB39
:1001900000480047E56C0008AFF30080704A00207B
:1001A0002C4B19680868B0E8F04F80F30988BFF35A
:1001B0006F8F4FF0000080F311887047000000003F
:1001C00008480068006880F308884FF0000080F35A
:1001D000148862B661B6BFF34F8FBFF36F8F00DF35
:1001E00000BF00BF08ED00E0DFF80C00016841F43B
:1001F00070010160704700BF88ED00E0EFF30980F7
:10020000BFF36F8F134B1A681EF0100F08BF20ED5D
:10021000108A20E9F04F106009B44FF0500080F3CD
:100220001188BFF34F8FBFF36F8F07F005FC4FF0BE
:10023000000080F3118809BC19680868B0E8F04F25
:100240001EF0100F08BFB0EC108A80F30988BFF3CE
:100250006F8F704768000020EFF305807047000043
:100260000648804706480047FEE7FEE7FEE7FEE750
:10027000FEE7FEE7FEE7FEE7FEE7FEE7055C0008B7
:10028000890100082DE9F05F0546002092469B4653
:1002900088460646814640241BE02846414647469C
:1002A000224600F00AFA53465A46C01A914110D32A
:1002B00011461846224600F0F1F92D1A67EB0108A5
:1002C0004F4622460120002100F0E8F917EB000913
:1002D0004E41201EA4F10104DFDC484631462A4687
:1002E0004346BDE8F09F40EA01039B0703D009E0C5
:1002F00008C9121F08C0042AFAD203E011F8013B12
:1003000000F8013B521EF9D27047D2B201E000F86A
:10031000012B491EFBD270470022F6E710B51346A9
:100320000A4604461946FFF7F0FF204610BDF0B418
:1003300080EA0102D40F4200B2EB410F02D2024622
:10034000084611464A0042D0C30DDDB2C1F3C75280
:10035000AD1A202D35DAC1F3160141F4000204B1C3
:100360005242C5F1200602FA06F12A411044B3EBCD
:10037000D05F23D0C4B1012DA0EBC35009DCF0BC89
:100380004FF0004202EAC352DBB200F5000000F079
:10039000ADB9400000F1807000EBC350A0F1807057
:1003A00040EAD170490009E0490841EAC071A0EB78
:1003B000C35000F50000400800EBC350F0BC00F053
:1003C0008CB96142012202EB4101001BF6E7F0BC4F
:1003D000704781F00041AAE780F00040A7E780EA7B
:1003E000010210B502F00043400022D04A001FD0A5
:1003F000010E01EB1261C0F35600C2F3560240F445
:10040000000042F40002A0FB022000047F39140423
:1004100000D0401C50EA124001D44000491EC2B234
:100420000C0604EBD010401C4008802A02D003E0E8
:10043000002010BD20F00100002900DA0020184340
:1004400010BD2DE9FE4F81EA030404F0004421F0C1
:10045000004100944FF0000B23F0004350EA0104E8
:100460005ED052EA03045BD0C3F30A54C1F30A55C9
:100470002C44A4F2F3340194A0FB0254C1F3130101
:1004800041F48011C3F3130343F4801301FB0244CE
:1004900000FB034E840A970A44EA815447EA8357D3
:1004A000A4FB076802958D0A05FB07854FEA932C8C
:1004B00004FB0C542705029D4FEA065847EA1637FD
:1004C000B5EB08056EEB070C870E920E47EA811715
:1004D00042EA8312A7FB0201B6EB0B0164EB0004B6
:1004E0002B0D43EA0C335E1844EB1C50DA465146A0
:1004F000E7FB0201C5F313044FEA0B3343EA14533D
:100500004FEA0432019C43EA0603A4F10C0402946E
:10051000009CCDE900B400F026F903B0BDE8F08FEF
:1005200000200146F9E72DE9F04D81EA030404F0CB
:10053000004B21F0004514464FF0000A23F0004123
:1005400050EA050220D054EA01021DD0C5F30A5733
:100550000246C5F31303C1F31300C1F30A5640F476
:10056000801543F48013A7EB0608101BD64608F24B
:10057000FD3873EB050002D308F1010801E0921881
:100580005B41B8F1000F03DA00200146BDE8F08DB1
:1005900000204FF48011064684460EE0171B73EBD3
:1005A000050705D3121B63EB050306434CEA010C58
:1005B00049084FEA300092185B4150EA0107EDD13B
:1005C00052EA030012D082EA040083EA05010843DC
:1005D00005D0101BAB4106D20122002306E0002209
:1005E0004FF0004302E06FF0010253101AEB0600D7
:1005F0004CEB085110EB0A0041EB0B01BDE8F04D4C
:1006000000F0A2B80EB5C10F80EAE0700844CA0736
:10061000002140F233438DE80E000A460B4600F0FD
:10062000A2F803B000BD70B5C1F30A5201F0004555
:100630000024C1F3130140F2FF3341F480119A42C8
:1006400001DA002070BD40F233439A42A2F23342F5
:1006500003DC524200F031F800E090402C43F1D02E
:10066000404270BD01F0004330B421F0004150EA37
:10067000010206D00A0DA2F56072C1F31301002A2F
:1006800002DC30BC00207047440F44EAC104C100C2
:10069000E01830BC00EBC25000F01FB8202A04DB89
:1006A000203A00FA02F1002070479140C2F1200385
:1006B00020FA03F3194390407047202A04DB203AC4
:1006C00021FA02F00021704721FA02F3D040C2F172
:1006D000200291400843194670470029A8BF70477F
:1006E000401C490008BF20F00100704710B4B0FA68
:1006F00080FC00FA0CF050EA010404BF10BC704703
:1007000049B1CCF1200421FA04F411FA0CF118BF1C
:10071000012121430843A3EB0C01CB1D4FEA0061EB
:100720004FEA102042BF002010BC704700EBC350BE
:1007300010440029A4BF10BC7047401C490008BFEA
:1007400020F0010010BC704710B5141E73F10004B6
:1007500008DA401C41F1000192185B411A4301D1B3
:1007600020F0010010BD2DE9F04D92469B4611B1DD
:10077000B1FA81F202E0B0FA80F220329046FFF73F
:100780008DFF04460F4640EA0A0041EA0B0153463A
:100790005A46084313D0114653EA010019D0C8F154
:1007A00040025046FFF789FF05460E46504659461F
:1007B0004246FFF773FF084305D0012004E02046BE
:1007C0003946BDE8F08D0020054346EAE0762C432B
:1007D00037430A986305E40AA0EB08000022FD0AEB
:1007E00044EA47540A3002D500200146E9E70105F2
:1007F00010196941DDE9084500196941BDE8F04D6E
:10080000A2E72DE9F04D00231A461B1A8A4103DBAB
:1008100000200146BDE8F08DC1F30A52C1F3130177
:1008200041F480154FF0000BD10702D100186D4143
:10083000521E0027044640F2FF11384601EB620ABF
:100840003E468046024600204FF48011FFF735FFF8
:10085000C2197141BB1846EB0100B4EB030C75EBF8
:10086000000C04D3E41A65EB000517460E46241964
:1008700008F101006D4180463428E3DDF91946EBAB
:100880000600091BA84103D24FF0FF32134601E0D6
:10089000002213461BEB070046EB0A51BDE8F04D62
:1008A000FFF752BF064C074D06E0E06840F0010339
:1008B00094E8070098471034AC42F6D3FFF768FC81
:1008C000887E0008A87E00082DE9F041D0E906677F
:1008D000056A884604464FF0404185602846FFF788
:1008E0007EFD3146FFF775FD606030463946FFF703
:1008F0001EFD2946FFF71BFD2060B8F1000F1EBF4B
:100900000020C4E903006061BDE8F081FEE700005B
:10091000014800F051BB000070060020014800F0C3
:100920004BBB00007006002038B50E4C4FF400752C
:1009300025600025A560E560082525610A4C050AAB
:1009400025706070080AA070E170100A2071627151
:10095000180AA071E3716B4622460249034800F071
:10096000BDF838BD1C0100200100002070060020E9
:10097000014800F097BE0000D40800200168182349
:10098000CAB2103AB2FBF3F2054B6FF30901032A26
:100990009B5CC36500D9091D81650846704700004E
:1009A000387E000810B5014600208B698A6A4FF036
:1009B000C07453B1B3F5005F15D072B1012A0CD0E9
:1009C000022A0AD0032A09D104E01AB1012A06D06A
:1009D000022A03D1C96AC90100D5012010BDC96A24
:1009E000A142FAD010BD002AF7D0012AF2D0022A83
:1009F000F3D0032AF3D010BD30B50468256825F480
:100A000080252560046863608368402B036803D0F9
:100A100099600068C26030BD9A600068C16030BDF6
:100A2000704772B6FEE700002DE9F0410D460C4913
:100A300000EB800086B001EB80041F4616461421AF
:100A40006846DDF83080FFF767FC8DE8E00114228E
:100A500069462046FFF747FC06B0BDE8F08100007C
:100A6000F402002070B590F820600D4604460C4852
:100A7000814204D94FF4D0610AA006F017F8012E84
:100A800007D0022E05D0606A40F480206062012009
:100A900070BD2068416929434161002070BD00009C
:100AA0007F8F03002E2E2F447269766572732F5349
:100AB000544D3332463478785F48414C5F44726914
:100AC0007665722F5372632F73746D333266347888
:100AD000785F68616C5F63616E2E63002DE9F0479B
:100AE00090F82080994616460D46044600688768AF
:100AF000886830B1042804D040F2E9414EA005F0E6
:100B0000D5FFE86830B1022804D040F2EA414AA09B
:100B100005F0CCFF2869082804D940F2EB4146A033
:100B200005F0C4FFA86800281BD06868B0F1005F1A
:100B300004D340F2F24140A005F0B8FF287D30B167
:100B4000012804D040F2F4413BA005F0AFFFB8F11A
:100B5000010F0DD0B8F1020F0AD0606A40F4802076
:100B600066E02868B0F5006FE8D340F2EE41E2E7B6
:100B700017F0406F01D1F80057D5C7F30160022884
:100B800003D9606A40F4000052E001218140C9F8B5
:100B90000010AA684FF4C0719AB1EB681A436B68F1
:100BA00042EAC302236801EB0017DA514FF4C27224
:100BB000276802EB00122B69BB502B7D012B05D05F
:100BC00009E02B88EA6842EA4352EBE723689D5824
:100BD00045F480759D503279F379757942EA036264
:100BE000B3791B0443EA05231A434FF4C6752368FF
:100BF00005EB00155A513278F378757842EA0362B2
:100C0000B3781B0443EA05231A434FF4C4752368E1
:100C100005EB00155A51226801EB0010115841F004
:100C2000010111500020BDE8F087606A40F4001017
:100C300060620120F7E700002E2E2F44726976656E
:100C400072732F53544D3332463478785F48414C99
:100C50005F4472697665722F5372632F73746D33BC
:100C600032663478785F68616C5F63616E2E630012
:100C700070B50C4690F82010012907D0022905D044
:100C8000416A41F480214162012070BD20684FF427
:100C90008035A84204D34FF4547163A005F006FFD9
:100CA0006068A84204D340F251315FA005F0FEFE17
:100CB000A068A84204D340F252315BA005F0F6FED2
:100CC000E068A84204D340F2533157A005F0EEFE8D
:100CD000A06930B1012804D04FF4557152A005F03D
:100CE000E5FEE06930B1012804D040F255314EA054
:100CF00005F0DCFE206930B1012804D040F2563105
:100D000049A005F0D3FE206A30B1012804D040F29A
:100D1000573145A005F0CAFE6069514D1B2804D922
:100D200040F2723140A005F0C1FE606A1B2804D970
:100D300040F273313CA005F0B9FED5F8000240F056
:100D40000100C5F80002D5F8000220F47C50C5F877
:100D50000002D5F80002616A40EA0120C5F80002ED
:100D6000207D00F01F0101208840D5F81C1281432E
:100D7000C5F81C12E169B1B9D5F80C128143C5F868
:100D80000C12A289616862F31F41626905EBC2021D
:100D9000C2F840122289216862F31F41626905EBA3
:100DA000C202C2F84412E169012916D1D5F80C1229
:100DB0000143C5F80C122288616862F31F41626921
:100DC00005EBC202C2F840122289E16862F31F41BA
:100DD000626905EBC202C2F84412A1690029D5F884
:100DE00004120FD051EA0001C5F80412216900294C
:100DF000D5F8141208D00143C5F81412216A01294C
:100E000004D008E08143EFE78143F5E7D5F81C12F1
:100E10000143C5F81C12D5F8000220F00100C5F806
:100E20000002002070BD00002E2E2F4472697665EE
:100E300072732F53544D3332463478785F48414CA7
:100E40005F4472697665722F5372632F73746D33CA
:100E500032663478785F68616C5F63616E2E630020
:100E60000064004003480068416941F002014161AB
:100E700070470000700600202DE9F04190F82080B6
:100E80001D4617460E00044606D0012E04D04FF42E
:100E9000BE613BA005F00AFEB8F1010F06D0B8F123
:100EA000020F03D0606A40F480205EE02068002ECC
:100EB00056D00069800755D04FF4D870216800EBF8
:100EC0000610095811F00401B960216809584FD083
:100ED000C90879602168085800F00200F8604FF4F2
:100EE000DA70216800EB0610095801F00F01396132
:100EF00021680958C1F30721B96121680858000C1D
:100F000078614FF4DC70216800EB061009582970F5
:100F100021680958090A697021680958090CA970E3
:100F200021680858000EE8704FF4DE70216800EB6D
:100F300006100958297121680958090A6971216840
:100F40000958090CA97121680858000EE871206839
:100F50008EB1016941F0200101610020BDE8F081FE
:100F6000C068A7E7606A40F4001060620120F5E7FE
:100F7000490D3960AEE7C16841F02001C160ECE77E
:100F80002E2E2F447269766572732F53544D33326F
:100F9000463478785F48414C5F4472697665722FB9
:100FA0005372632F73746D3332663478785F68617F
:100FB0006C5F63616E2E63002DE9F05F054600688B
:100FC00000244669D0F804908768D0F80CB0D0F8B7
:100FD00010A0D0F81880F10748D0F90714D00121EB
:100FE0008160B80703D5284600F0FBFA0CE07807CB
:100FF00002D54FF4006407E0380702D54FF480545F
:1010000002E0284600F0ECFAF80516D529684FF4FE
:1010100080708860B80503D5284600F0E4FA0CE03B
:10102000780502D544F4005407E0380502D544F4AD
:10103000804402E0284600F0D5FAF80316D5296866
:101040004FF480308860B80303D5284600F0CDFA0D
:101050000CE0780302D544F4004407E0380302D5DD
:1010600044F4803402E0284600F0BEFA300707D589
:101070005FEACB6004D52968102044F40074C8608E
:1010800070074FF0080707D55FEA0B7004D5286892
:10109000C760284600F03EFAB00706D52868C06849
:1010A000800702D0284600F037FA700607D55FEABD
:1010B000CA6004D52968102044F480640861B00631
:1010C00007D55FEA0A7004D528680761284600F052
:1010D00057FAF00606D528680069800702D028462E
:1010E00000F04FFAB00308D55FEAC96005D529685A
:1010F00010204860284600F045FAF00307D55FEA63
:10110000097004D528684760284600F06FFA30045B
:1011100046D55FEA497040D5F00504D55FEAC8704E
:1011200001D044F00104B00504D55FEA887001D510
:1011300044F00204700504D55FEA487001D544F01C
:101140000404300529D518F0700F26D008F070007F
:10115000402815D006DC102809D020280AD03028D5
:1011600016D10AE050280ED0602811D10EE044F0CC
:1011700008040DE044F010040AE044F0200407E005
:1011800044F0400404E044F0800401E044F480743E
:101190002868816921F07001816129680420486014
:1011A000002C05D0686A204368622846FFF75AFE83
:1011B000BDE8F09F70B504007ED0A4492068884245
:1011C00007D0A349884204D040F21D11A1A005F028
:1011D0006DFC207E30B1012804D04FF48F719DA0AA
:1011E00005F064FC607E30B1012804D040F21F118C
:1011F00098A005F05BFCA07E30B1012804D04FF42C
:10120000907194A005F052FCE07E30B1012804D02A
:1012100040F221118FA005F049FC207F30B1012858
:1012200004D04FF491718BA005F040FC607F30B189
:10123000012804D040F2231186A005F037FCA068F5
:1012400068B1B0F1804F0AD0B0F1004F07D0B0F1D3
:10125000404F04D04FF492717EA005F027FCE06867
:1012600068B1B0F1807F0AD0B0F1007F07D0B0F153
:10127000407F04D040F2251176A005F017FC2069CC
:1012800098B3B0F5803F30D0B0F5003F2DD0B0F529
:10129000403F2AD0B0F5802F27D0B0F5A02F24D022
:1012A000B0F5C02F21D0B0F5E02F1ED0B0F5002F43
:1012B0001BD0B0F5102F00E041E016D0B0F5202F84
:1012C00013D0B0F5302F10D0B0F5402F0DD0B0F5C1
:1012D000502F0AD0B0F5602F07D0B0F5702F04D092
:1012E0004FF493715BA005F0E1FB6069C8B1B0F504
:1012F000801F16D0B0F5001F13D0B0F5401F10D0DE
:10130000B0F5800F0DD0B0F5A00F0AD0B0F5C00F2A
:1013100007D0B0F5E00F04D040F227114DA005F042
:10132000C5FB6068401EB0F5806F04D34FF4947124
:1013300048A005F0BBFB94F8200010B104E00120A8
:1013400070BD204600F0A2F82068016841F001015C
:10135000016000F0DBFD0546052604E000F0D6FD47
:10136000401B0A2811D820684068C007F6D02068C2
:10137000016821F00201016000F0C8FD05460BE0A4
:1013800000F0C4FD401B0A2806D9606A40F4003012
:10139000606284F82060D2E7206840688007EFD45C
:1013A000207E0128206801683DD021F08001016085
:1013B000607E01282068016838D021F0400101607A
:1013C000A07E01282068016833D021F0200101604F
:1013D000E07E0128206801682ED041F010010160F4
:1013E000207F01282068016829D021F008010160D0
:1013F000607F01282068016824D021F00401016089
:10140000D4E902010843D4E9041211430843616896
:10141000491E08432168C86100206062012084F8E9
:101420002000002070BD41F08001C0E741F0400184
:10143000C5E741F02001CAE721F01001CFE741F0F4
:101440000801D4E741F00401D9E70000006400403E
:10145000006800402E2E2F447269766572732F53F8
:10146000544D3332463478785F48414C5F4472695A
:101470007665722F5372632F73746D3332663478CE
:10148000785F68616C5F63616E2E630010B586B033
:10149000044614216846FEF73FFF1B492068884236
:1014A0002FD11A480021026842F0007202600068E1
:1014B00000F00070059015481038026842F00802EC
:1014C00002600068022200F0080005900320CDE9C8
:1014D0000210CDE900020920049069460C4800F092
:1014E00097FB00220521132000F0D2FD132000F00D
:1014F0009DFD00220521142000F0CAFD142000F0FB
:1015000095FD06B010BD0000006400404038024068
:10151000000C02407047000000B58BB001AB03AA7D
:101520000021FFF7A9FC0398A0F2012006281AD891
:101530001049C0B200EB800208700F4901EB420075
:1015400031F812300381BDF804305BBA21F8123053
:10155000BDF8061049BA4180BDF8081049BA81802B
:101560009DF80A10817102210448FFF77BFA0BB045
:1015700000BD000000000020D40000207006002004
:10158000704770477047000070B5044690F820001F
:10159000012804D0606A40F40020606218E0022054
:1015A00084F820002068016821F00101016000F04A
:1015B000ADFC05460EE000BF00F0A8FC401B0A2869
:1015C00008D9606A40F400306062052084F8200089
:1015D000012070BD20684068C007EDD1606270BD19
:1015E00070477047704770477047704770472DE9E4
:1015F000F0410446876D00F089FC064694F83500FA
:101600000025022806D08020606584F8345001202F
:10161000BDE8F0812068016821F0160101602068B2
:10162000416921F080014161206C08B9A06C20B1B2
:101630002068016821F0080101602068016821F03C
:10164000010101600CE000F061FC801B052807D956
:1016500020206065032084F8350084F83450D7E7F3
:1016600020680068C007EED194F85C103F208840E5
:10167000B860012084F8350084F834500020C7E7B2
:1016800090F83510022903D0802141650120704770
:10169000052180F835100068016821F00101016022
:1016A000002070472DE9F84304464FF00009CDF8BB
:1016B000009063484FF41651A56D0068B0FBF1F738
:1016C0002E6894F85C10082000FA01F131420FD026
:1016D00021680A6852070BD50A6822F004020A60E2
:1016E00094F85C108840A860606D40F0010060656F
:1016F00094F85C104FF0010808FA01F0304208D06D
:1017000021684969090604D5A860606D40F00200AF
:10171000606594F85C1004208840304208D021684D
:101720000968890704D5A860606D40F00400606511
:1017300094F85C1010208840304218D02168096865
:10174000090714D5A86020680168490304D500681A
:10175000000308D5A16C07E00168C90503D401683E
:1017600021F008010160216C09B12046884794F8F6
:101770005C1020208840304231D021680968C906B9
:101780002DD5A86094F8350005282068016806D09A
:10179000490347D5006800031DD4616C1CE021F0AB
:1017A000160101602068416921F080014161206CCF
:1017B00008B9A06C20B12068016821F0080101601F
:1017C00094F85C103F208840A86084F8358084F845
:1017D0003490216D1FE0E16B09B120468847606DB0
:1017E00000282BD0606DC00714D0052084F8350088
:1017F0002068016821F0010101600098401C009000
:10180000B84203D820680068C007F6D184F8358054
:1018100084F83490E16C002910D001B02046BDE876
:10182000F04308470168C905D5D4016821F01001CB
:10183000016084F8358084F83490CCE7BDE8F88303
:10184000640000202DE9F041044600F05FFB0546EE
:10185000002C7CD0A249206888423ED0A049183193
:1018600088423AD09E493031884236D09C4948312E
:10187000884232D09A49603188422ED098497831D6
:1018800088422AD096499031884226D09449A8317E
:10189000884222D0934988421FD092491831884209
:1018A0001BD090493031884217D08E494831884248
:1018B00013D08C49603188420FD08A4978318842F0
:1018C0000BD088499031884207D08649A831884298
:1018D00003D0B72184A005F0E9F86068C0B1B0F189
:1018E000007F15D0B0F1806F12D0B0F1C06F0FD073
:1018F000B0F1006F0CD0B0F1206F09D0B0F1406FA3
:1019000006D0B0F1606F03D0B82177A005F0CEF813
:10191000A06838B1402805D0802803D0B92172A032
:1019200005F0C4F8E068B0F5007F04D018B1BA2122
:101930006DA005F0BBF82069B0F5806F04D018B138
:10194000BB2169A005F0B2F8606958B100E071E010
:10195000B0F5006F06D0B0F5805F03D0BC2162A067
:1019600005F0A4F8A06948B1B0F5005F06D0B0F565
:10197000804F03D0BD215CA005F098F8E06940B12C
:10198000B0F5807F05D0202803D0BE2156A005F0F9
:101990008DF8206A60B1B0F5803F09D0B0F5003F06
:1019A00006D0B0F5403F03D0BF214FA005F07EF830
:1019B000606A002832D0042806D0C0214AA005F071
:1019C00075F8606A002829D0A06A48B1012807D0BC
:1019D000022805D0032803D0C52143A005F066F8EE
:1019E000E06A60B1B0F5000F09D0B0F1807F06D099
:1019F000B0F1C07F03D0C6213BA005F057F8206BA3
:101A000060B1B0F5001F09D0B0F5800F06D0B0F579
:101A1000C00F03D0C72134A005F048F8022084F895
:101A20003500002684F834602068016821F0010147
:101A300001600EE00120BDE8F08100BF00F066FA11
:101A4000401B052805D920206065032084F8350057
:101A5000F1E720680068C007F0D1226811683048BB
:101A60000140D4E901031843D4E903352B4318435B
:101A700063691843A3691843E3691843236A184349
:101A80000843616A042903D1D4E90B1319430843BD
:101A9000106020684069656A20F007002946054308
:101AA000012704290CD1A06A0543E06A40B1204611
:101AB000FEF778FF20B14020606584F83570B9E703
:101AC000206845612046FEF759FF94F85C203F21CD
:101AD00091408160666584F835700020ABE70000B6
:101AE00010600240106402402E2E2F447269766509
:101AF00072732F53544D3332463478785F48414CDB
:101B00005F4472697665722F5372632F73746D33FD
:101B100032663478785F68616C5F646D612E630053
:101B20003F8010F02DE9F04789460446876D002577
:101B3000581E4FF6FF711E469046884204D340F26D
:101B4000CB111CA004F0B2FF94F8340001280DD092
:101B5000012084F8340094F835100020012907D0C2
:101B600084F8340002252846BDE8F0870220FBE710
:101B7000022184F8351060653346424649462046C6
:101B8000FEF73AFF94F85C103F208840B860206868
:101B9000016841F016010160206C20B120680168E5
:101BA00041F0080101602068016841F00101016015
:101BB000D9E700002E2E2F447269766572732F5379
:101BC000544D3332463478785F48414C5F447269F3
:101BD0007665722F5372632F73746D333266347867
:101BE000785F68616C5F646D612E630070B5044658
:101BF00000F08CF90546601C02D0044800780444CB
:101C000000F084F9401BA042FAD370BD58000020B8
:101C10002DE9F84FDFF888B20D46044658451BD031
:101C2000A048844218D0A048844215D09F488442DE
:101C300012D09F4884420FD09E4884420CD09E48C8
:101C4000844209D09D48844206D09D48844203D0F6
:101C5000AC219CA004F02AFF28680104090C01D0E3
:101C6000000C03D0AD2197A004F020FF6868F8B104
:101C700001281DD011281BD0022819D0122817D0F6
:101C8000B0F5881F14D0B0F5041F11D0B0F5441F73
:101C90000ED0B0F5901F0BD0B0F5081F08D0B0F5EE
:101CA000481F05D0032803D0AE2186A004F0FEFE15
:101CB00000264FF0010A4FF0030900BF0AFA06F0B0
:101CC0002F688046074047457ED1287900F0030001
:101CD000012801D002281DD1E86848B1012807D0A9
:101CE000022805D0032803D0C02176A004F0DEFE30
:101CF000A168720009FA02F08143E8689040084345
:101D0000A0606068297920EA0800C1F30011B140A1
:101D1000014361602879C043800712D0A86838B1B8
:101D2000012805D0022803D0D12166A004F0BEFE10
:101D3000E168720009FA02F08143A8689040084304
:101D4000E060287900F0030002282ED12869F8B15C
:101D500009281DD001281BD0022819D0032817D02C
:101D6000042815D0052813D0062811D007280FD035
:101D700008280DD00A280BD00B2809D00C2807D032
:101D80000D2805D00F2803D0DE214EA004F08EFED2
:101D9000F00804EB8002106A7107CB0E0F21994006
:101DA000884329699940014311622068720009FA49
:101DB00002F18843297901F0030191400143216038
:101DC000686810F4403F00E063E062D04C4801686E
:101DD00041F480410160006826F0030100F4804076
:101DE000009048480A18D2F80808B1070B0F0F21D5
:101DF000994088435C4501D1002123E029498C4268
:101E000001D101211EE028498C4201D1022119E0B3
:101E100026498C4201D1032114E025498C4201D18D
:101E200004210FE023498C4201D105210AE0224917
:101E30008C4201D1062105E020498C4201D10721C5
:101E400000E0082199400143C2F808182E490868AB
:101E50006A68B843D20200D5384308602A49091D90
:101E600008686A68B843920200D53843086026497A
:101E7000091F08686A68B843920300D538430860B0
:101E80002149083908686A68B843D20300D5384345
:101E90000860761C102EFFF411AFBDE8F88F00002B
:101EA000000002400004024000080240000C024012
:101EB000001002400014024000180240001C0240C2
:101EC000002002402E2E2F447269766572732F53C4
:101ED000544D3332463478785F48414C5F447269E0
:101EE0007665722F5372632F73746D333266347854
:101EF000785F68616C5F6770696F2E630000000037
:101F00004438024000300140083C014001488068EC
:101F10007047000058000020024881680278114490
:101F200081607047580000200B4810B5016841F4EB
:101F300000710160016841F480610160016841F451
:101F400080710160032000F0F3F80F2000F006F824
:101F500000F050F8002010BD003C024030B50546AE
:101F60001F4887B00024016841F02001016000682B
:101F700006A900F02000009001A800F047FA04989C
:101F8000A8B100F063FA40001649174AB0FBF1F11E
:101F90001648491E026040F2E732C0E90324C0E956
:101FA0000114846100F052FE040003D015E000F03B
:101FB0004DFAE9E70D4800F089FF04000DD1372004
:101FC00000F034F8102D07D200222946372000F007
:101FD0005FF80748056000E0012407B0204630BDE7
:101FE0004038024040420F000014004034090020F5
:101FF0005C0000200C4882B0016841F4804101601F
:10200000006800F4804000900748001F016841F01C
:10201000805101600068002200F0805000900F2184
:10202000901E02B000F034B84438024010B50400ED
:1020300003D5BC2107A004F039FD002C09DB04F016
:102040001F01012088406109890001F1E021C1F8E8
:10205000000110BD2E2E2F447269766572732F53C6
:10206000544D3332463478785F48414C5F4472694E
:102070007665722F5372632F73746D3332663478C2
:10208000785F68616C5F636F727465782E630000BF
:1020900070B515460C460646102A03D3A82114A095
:1020A00004F004FD102C03D3A92111A004F0FEFCC0
:1020B0001E480068C0F30223C3F107022046042A29
:1020C00000D90422191D072901D2002300E0DB1EDC
:1020D000012404FA02F1491E014099409C40641E0B
:1020E0002C4021433046BDE8704004F07CBC000029
:1020F0002E2E2F447269766572732F53544D3332EE
:10210000463478785F48414C5F4472697665722F37
:102110005372632F73746D3332663478785F6861FD
:102120006C5F636F727465782E6300000CED00E0E5
:1021300010B5044607280BD0062C09D0052C07D073
:10214000042C05D0032C03D0902108A004F0AEFC91
:10215000154904F0070208684FF6FF03184040EAEB
:102160000220124A1043086010BD00002E2E2F449A
:102170007269766572732F53544D333246347878D2
:102180005F48414C5F4472697665722F5372632FCA
:1021900073746D3332663478785F68616C5F636F37
:1021A000727465782E6300000CED00E00000FA0503
:1021B000704700002DE9F0470E4604007DD02068EE
:1021C000401E0E2804D940F25A217AA004F06EFC79
:1021D00096B1012E10D0022E0ED0032E0CD0042E5C
:1021E0000AD0052E08D0062E06D0072E04D040F2C5
:1021F0005B2170A004F05AFCDFF8F081D8F80000F1
:10220000F7B200F00700B04207D288F80070D8F8A3
:10221000000000F00700B0424FD12068744D8107E4
:1022200029D5400703D5286840F4E050286020787D
:10223000000703D5286840F460402860A068A0B17A
:10224000802812D0902810D0A0280ED0B0280CD012
:10225000C0280AD0D02808D0E02806D0F02804D022
:1022600040F27E2153A004F021FC2868A16820F0F0
:10227000F000084328602078C00743D0DFF8709151
:102280006068A9F1080988B1012822D0022824D069
:10229000032822D040F2852146A004F007FC6068A4
:1022A000012816D0022818D0032816D0D9F800002B
:1022B0008007002833DA286800E030E0616820F009
:1022C000030008432860FFF721FE814641F2883A67
:1022D00011E0D9F800008003EBE7D9F80000800195
:1022E000E7E700BFFFF712FEA0EB0901514502D955
:1022F0000320BDE8F0872868616800F00C00B0EBAF
:10230000810FEFD1D8F80010404601F00701B1422B
:1023100007D90770006800F00700B04201D0012023
:10232000E7E720784FF4805640074FF4A0574FF46A
:10233000C0584FF4E05914D5E06860B1B0420AD0FB
:10234000B84208D0404506D0484504D040F2C321E9
:1023500018A004F0ABFB2868E16820F4E0500843C3
:1023600028602078000715D5206960B1B0420AD0F6
:10237000B84208D0404506D0484504D040F2CA21B2
:102380000CA004F093FB2868216920F4604040EA27
:10239000C100286000F07AF82968164AC1F30311D9
:1023A000515CC8401449086014480068FFF7D6FD26
:1023B00000209EE72E2E2F447269766572732F538C
:1023C000544D3332463478785F48414C5F447269EB
:1023D0007665722F5372632F73746D33326634785F
:1023E000785F68616C5F7263632E6300003C02403B
:1023F00008380240407E0008640000205C00002095
:1024000001490120C8647047000047420F22026062
:102410000C4A136803F003034360136803F0F003EE
:102420008360136803F4E053C36012684FF4E05311
:1024300003EAD20202610448006800F00700086065
:102440007047000008380240003C0240044805493B
:1024500000680968044AC1F38221515CC840704792
:102460006400002008380240507E000804480549F6
:1024700000680968044AC1F34231515CC8407047A2
:102480006400002008380240507E0008154810B54E
:10249000006810F00C02144813D04110042A0FD029
:1024A000082A0ED10F4C241F2268236802F03F0235
:1024B0005B0207D52068C0F38810A0FB010106E08D
:1024C000084610BD2168C1F38811A1FB000100235B
:1024D000FDF7D8FE2168C1F30141491C4900B0FB5A
:1024E000F1F010BD083802400024F400054810B592
:1024F0000068000605D5FFF75BFE02498020891CB5
:10250000087010BD0C3802402DE9F84F04007DD052
:1025100020680F2803D9E621F7A004F0C7FA207835
:10252000DFF80C94C007A9F1040555D060684FF49A
:1025300080364FF4A02738B1B04205D0B84203D05E
:10254000EB21EDA004F0B2FAF948001D0168C1F3D7
:102550008101012908D00068C0F3810002280AD156
:10256000D9F80000400206D52868800334D5606899
:102570000028CCD030E06068B04203D1286840F435
:1025800080300CE0B842286803D140F480202860F5
:10259000F4E720F480302860286820F48020286048
:1025A000606860B1FFF7B2FC064604E0FFF7AEFCDE
:1025B000801B64287ED828688003F7D50CE0FFF7DD
:1025C000A5FC064605E000BFFFF7A0FC801B6428C1
:1025D000F0D828688003F7D42078DFF85883800784
:1025E0004FF0000A56D5E06830B1012804D040F21F
:1025F0001D11C1A004F05AFA20691F2804D94FF414
:102600008F71BDA004F052FAC94800E092E0001DAD
:10261000016811F00C0F08D00068C0F38100022897
:1026200010D1D9F8000040020CD42868800702D5E8
:10263000E06801287ED12868216920F0F80040EA8E
:10264000C10017E0E068B8B10120C8F80000FFF74A
:102650005DFC064605E000BFFFF758FC801B022822
:10266000A8D828688007F7D5286820F0F8012069E5
:1026700041EAC00028600DE0C8F800A0FFF746FC62
:10268000064604E0FFF742FC801B022892D8286827
:102690008007F7D4207800072ED5A54EA64F606995
:1026A0007036D0B1012808D04FF4AF7192A004F079
:1026B000FDF900E04BE1606978B101203860FFF777
:1026C00025FC074605E000BFFFF720FCC01B0228E1
:1026D000C6D830688007F7D50EE0C7F800A0FFF72E
:1026E00015FC074605E000BFFFF710FCC01B0228E1
:1026F000B6D830688007F7D42078400776D5A06830
:10270000002740B1012806D0052804D04FF4C57138
:1027100079A004F0CBF9DFF818B20BF13C0BDBF831
:102720000000C0000DD4DBF8001041F08051CBF860
:10273000001000E038E1DBF80000012700F08050D5
:1027400000907E4E3068C00511D4306840F480702F
:102750003060FFF7DBFB009006E000BFFFF7D6FB21
:102760000099401A022891D83068C005F6D5704EFD
:10277000A0686C3601280FD00528306810D020F0F2
:1027800001003060306820F004003060A068B8B10B
:10279000FFF7BCFB00900FE0306840F00100F4E769
:1027A00040F004003060F7E7FFF7B0FB0099411AF2
:1027B00041F2883081428BD830688007F4D50EE032
:1027C000FFF7A4FB009007E0FFF7A0FB0099411A78
:1027D00041F2883081428BD830688007F4D42FB121
:1027E000DBF8001021F08051CBF80010A069002820
:1027F00076D0012809D0022807D040F2CD113EA0A2
:1028000004F054F9A0690028F2D04948001D00687E
:10281000C0F381000228A0696DD0022805D0C8F855
:1028200060A0FFF773FB044694E0E06938B1B0F5AF
:10283000800F04D04FF4EB712FA004F037F9206A19
:102840003F2804D940F2D7112BA004F02FF9606A79
:102850003238B0F5BF7F04D94FF4EC7126A004F0F4
:1028600025F9A06A02280AD0042808D0062806D034
:10287000082804D040F2D9111FA004F017F9E06A2B
:10288000801E0D2804D94FF4ED711BA004F00EF941
:102890004746C8F860A0FFF739FB064605E000BFD1
:1028A000FFF734FB801B022851D828688001F7D439
:1028B000D4E907010843A16A214A490802EB014112
:1028C000626A41EA8211084394F82C1040EA0161DF
:1028D000C9F8001001203866FFF718FB044606E02F
:1028E00064E000BFFFF712FB001B02282FD8286806
:1028F0008001F7D55AE031E02E2E2F4472697665BB
:1029000072732F53544D3332463478785F48414CBC
:102910005F4472697665722F5372632F73746D33DF
:1029200032663478785F68616C5F7263632E63002F
:102930000438024000004742800E474200700040C9
:102940000000FFFFFFF7E2FA001B022802D9032074
:10295000BDE8F88F28688001F4D427E00128F7D07B
:10296000D9F80000E26900F4800191421CD1226A8A
:1029700000F03F01914217D147F6C071626A0140F1
:10298000B1EB821F10D1A26A4FF0FF3300F4403147
:1029900003EB5202B1EB024F06D194F82C1000F079
:1029A0007060B0EB016F01D00120D1E70020CFE7CC
:1029B0007047704770B50C46054600683E4988422E
:1029C00007D03E49884204D040F2EE713CA004F0AA
:1029D0006DF82068B0F5006F05D020B140F2EF71BE
:1029E00037A004F063F86068B0F5806F05D020B1BF
:1029F0004FF4FE6132A004F059F8A06868B1B0F558
:102A0000807F0AD0B0F5007F07D0B0F5407F04D0BA
:102A100040F2F1712AA004F049F8E068FF2804D9D7
:102A200040F2F27126A004F041F82069B0F5805F11
:102A300005D020B140F2F37121A004F037F86069AD
:102A400038B1B0F5005F04D040F2F4711CA004F07E
:102A50002DF8E069B0F5804F05D020B140F2F57156
:102A600017A004F023F895F83C00012822D001209B
:102A700085F83C00E068A26820F44070104362686A
:102A800020F480601043226820F400601043226923
:102A900020F480501043626920F400501043E26932
:102AA000002120F4804010432A68506485F83C10CF
:102AB000002070BD022070BD0000014000040140F4
:102AC0002E2E2F447269766572732F53544D333214
:102AD000463478785F48414C5F4472697665722F5E
:102AE0005372632F73746D3332663478785F686124
:102AF0006C5F74696D5F65782E6300002DE9F05F8F
:102B0000044600683A4E3B4FDFF8EC80DFF8EC906B
:102B1000DFF8ECA00D464FF0804BB04215D0584581
:102B200013D0B84211D040450FD048450DD04FEAE0
:102B3000B641884209D03349884206D0504504D076
:102B400040F2B17130A003F0B1FF286890B11028B5
:102B500010D020280ED030280CD040280AD0502881
:102B600008D0602806D0702804D040F2B27126A0A8
:102B700003F09CFF6868802805D020B140F2B37153
:102B800021A003F093FF94F83C0001282DD00122EE
:102B900084F83C20022084F83D00216848688B6856
:102BA00020F0700C286840EA0C0048602068B042B1
:102BB0000FD058450DD0B8420BD0404509D04845FC
:102BC00007D0504505D01F49884202D01E4988428F
:102BD00004D1696823F080031943816084F83D20A3
:102BE000002084F83C00BDE8F09F0220FBE70000D5
:102BF000000001400004004000080040000C0040BC
:102C000000040140001400402E2E2F4472697665A6
:102C100072732F53544D3332463478785F48414CA9
:102C20005F4472697665722F5372632F73746D33CC
:102C300032663478785F68616C5F74696D5F65785F
:102C40002E630000004001400018004010B5040051
:102C500058D03F49206888422BD0B0F1804F28D00F
:102C60003C49884225D03C49884222D03B49884291
:102C70001FD03B4988421CD03A49884219D03A4972
:102C8000884216D03949884213D03949884210D039
:102C9000384988420DD0384988420AD0374988429D
:102CA00007D03749884204D040F2131135A003F011
:102CB000FDFEA06860B110280AD0202808D0402866
:102CC00006D0602804D04FF48A712EA003F0EEFEE7
:102CD000206950B1B0F5807F07D0B0F5007F04D0F7
:102CE00040F2151127A003F0E1FEA06930B1802861
:102CF00004D04FF48B7123A003F0D8FE94F83D006C
:102D000010B107E0012010BD002084F83C002046EF
:102D100000F054F8022084F83D00211D206802F0E4
:102D200085FF012084F8460084F83E0084F83F00C7
:102D300084F8400084F8410084F8420084F843009D
:102D400084F8440084F8450084F83D00002010BD5C
:102D5000000001400004004000080040000C00405A
:102D600000100040001400400004014000400140F9
:102D7000004401400048014000180040001C004091
:102D8000002000402E2E2F447269766572732F53F7
:102D9000544D3332463478785F48414C5F44726911
:102DA0007665722F5372632F73746D333266347885
:102DB000785F68616C5F74696D2E630010B586B0D2
:102DC000044614216846FDF7A7FA38482268002314
:102DD0003749824205D1086840F001000860086860
:102DE0002BE03348001FB2F1804F21D0314CA2427A
:102DF00027D1016841F002010160006800F0020083
:102E000005902B481438016841F002010160006808
:102E1000694600F002000590102000900220CDE9E4
:102E20000103CDE903302448FEF7F2FE06B010BDE1
:102E3000016841F001010160006800F001000590A7
:102E4000F4E71E4B9A4207D1016841F0040101608A
:102E5000006800F00400F2E7194B9A4210D10168B3
:102E600041F0100101600068002200F010000590A0
:102E700005213620FFF70CF93620FFF7D7F8D5E704
:102E80001048824207D1086840F0020008600868D4
:102E900000F00200D3E70C488242C7D1086840F432
:102EA00080300860086800F48030C8E70000014006
:102EB0004438024000040040000402400008004082
:102EC0000010004000040140004001402DE9F05F87
:102ED000044600682F4D304E304FDFF8C480DFF8D5
:102EE000C490DFF8C4A0DFF8C4B0A84226D0B0F187
:102EF000804F23D0B04221D0B8421FD040451DD0D2
:102F00004FEAB541884219D02949884216D0484530
:102F100014D0504512D0274988420FD02649884204
:102F20000CD058450AD02549884207D02449884208
:102F300004D040F2CF1123A003F0B8FD94F83D0077
:102F4000012802D00120BDE8F09F022084F83D0056
:102F50002068C16841F00101C1602068A8420ED01C
:102F6000B0F1804F0BD0B04209D0B84207D04045F5
:102F700005D0484503D0504501D0584504D181685B
:102F800001F00701062903D0016841F00101016049
:102F90000020D8E700000140000400400008004085
:102FA000000C0040000401400040014000180040B7
:102FB000001400400044014000480140001C004053
:102FC000002000402E2E2F447269766572732F53B5
:102FD000544D3332463478785F48414C5F447269CF
:102FE0007665722F5372632F73746D333266347843
:102FF000785F68616C5F74696D2E63002DE9F84F2E
:1030000005460020009095F83C000C46012841D070
:10301000012085F83C00022085F83D0020684FF42F
:10302000805B584516D0702814D0B0F5005F11D0E1
:1030300040280FD050280DD060280BD050B1102858
:1030400008D0202806D0302804D041F2B741D4A0BF
:1030500003F02CFD2868816821F0770121F47F417D
:1030600081602068DC49DD4ADD4BDE4EDE4FDFF853
:103070007CC3DFF87C834FF080494FF4004A50282E
:103080007ED00FDC202804D007DC0028FBD01028DD
:1030900077D161E10220BDE8F88F3028F9D04028CF
:1030A000F6D126E160286DD0702874D0584544D000
:1030B0004FF400584045EBD1286888420ED048456F
:1030C0000CD090420AD0984208D0B04206D0B84204
:1030D00004D041F2E241B2A003F0E8FCA06858B18C
:1030E000584509D0404507D0B0F5405F04D041F2C3
:1030F000E541ABA003F0DAFC6068504509D040B16F
:10310000022806D00A2804D041F2E641A4A003F028
:10311000CDFCE0680F2804D941F2E741A0A003F0FC
:10312000C5FCD4E90121E368286802F05DFE286847
:10313000816841F48041816029E128688842FBD0A0
:103140004845F9D09042F7D09842F5D0B042F3D03C
:10315000A8498842F0D0A8498842EDD0B842EBD0C7
:103160006045E9D0A5498842E6D0A5498842E3D028
:103170004045E1D0A3498842DED0A349884203E01C
:103180004FE002E180E006E0D6D041F2C34184A0E6
:1031900003F08CFCFBE02868884212D0484510D030
:1031A00090420ED098420CD0B0420AD0B84208D01B
:1031B000604506D0404504D041F2CA4178A003F0F2
:1031C00075FCA06860B158450AD0B0F5005F07D023
:1031D000B0F5405F04D041F2CD4171A003F066FC30
:1031E0006068504509D040B1022806D00A2804D0B2
:1031F00041F2CE416AA003F059FCE0680F2804D9DF
:1032000041F2CF4166A003F051FCD4E90121E3680B
:10321000286802F0E9FD2968886840F07700886036
:10322000B5E02868884212D0484510D090420ED0B0
:1032300098420CD0B0420AD0B84208D0604506D0BF
:10324000404504D041F2F64155A003F02FFC6068E0
:10325000504509D040B1022806D00A2804D041F2D6
:10326000F9414FA003F022FCE0680F2804D941F295
:10327000FA414BA003F01AFCE2686168286803F089
:10328000E1F85021286831E02868884212D048458A
:1032900010D090420ED098420CD0B0420AD0B84222
:1032A00008D0604506D0404504D041F206513CA00C
:1032B00003F0FCFB6068504509D040B1022806D0FD
:1032C0000A2804D041F2095135A003F0EFFBE06871
:1032D0000F2804D941F20A5131A003F0E7FBE2685C
:1032E0006168286803F000F96021286802F086FD13
:1032F0004DE02868884212D0484510D090420ED048
:1033000098420CD0B0420AD0B84208D0604506D0EE
:10331000404504D041F2165121A003F0C7FB60687C
:10332000504509D040B1022806D00A2804D041F205
:1033300019511BA003F0BAFBE0680F2804D941F231
:103340001A5117A003F0B2FBE2686168286803F025
:1033500079F840212868C9E72868884212D0484592
:1033600010D090420ED098420CD0B0420AD0B84251
:1033700008D0604506D0404504D041F2295108A04C
:1033800003F094FB21682868B0E701200090012039
:1033900085F83D00002085F83C0000987BE60000A1
:1033A0002E2E2F447269766572732F53544D33322B
:1033B000463478785F48414C5F4472697665722F75
:1033C0005372632F73746D3332663478785F68613B
:1033D0006C5F74696D2E63000000014000040040C2
:1033E00000080040000C0040000401400040014083
:1033F000001800400010004000140040004401404C
:1034000000480140001C00400020004070470000C0
:103410002DE9F84F054600200090924F2868DFF80C
:103420004882DFF84892DFF848A2DFF848B2164633
:103430000C46B84221D0B0F1804F1ED040451CD080
:1034400048451AD0504518D0584516D08A49884268
:1034500013D08A49884210D0894988420DD08949C1
:1034600088420AD08849884207D08849884204D0D7
:1034700041F2120186A003F019FB206840B1022836
:1034800006D00A2804D041F2130181A003F00EFBFC
:103490006068012808D0022806D0032804D041F231
:1034A00014017BA003F002FBA06850B1042808D0EF
:1034B000082806D00C2804D041F2150174A003F0AE
:1034C000F5FAE0680F2804D941F2160170A003F064
:1034D000EDFA95F83C00012810D0012085F83C0059
:1034E00076B1042E1CD0082E45D00C2E7CD0009036
:1034F000002085F83C000098BDE8F88F0220FBE72B
:10350000D4E90012E368286802F0AEFF28688169F8
:1035100021F00C01816128688169A268114328E0CB
:103520002868B84215D0B0F1804F12D0404510D075
:1035300048450ED050450CD058450AD04E498842D7
:1035400007D05049884204D041F22C0150A003F02A
:10355000ADFAD4E90012E368286802F0D7FF2868C2
:10356000816921F44061816128688169A26841EA2A
:1035700002218161BCE72868B8420FD0B0F1804FCA
:103580000CD040450AD0484508D0504506D0584593
:1035900004D041F23C013EA003F088FA2868D4E947
:1035A0000027267B016A21F480710162C169036AE8
:1035B00021F00301394321F0F00731074FF4206671
:1035C00047EA116123F4206306EA02221A43C1612B
:1035D00002622868C16921F00C01C1612868C169D3
:1035E000A26811433BE0FFE72868B8420FD0B0F172
:1035F000804F0CD040450AD0484508D0504506D0F1
:10360000584504D041F24C0121A003F04FFA28683C
:10361000D4E90021E668036A23F480530362C76992
:10362000036A27F4407747EA012121F470474FF6F7
:10363000FF7101EA063139434FF4204623F4204359
:1036400006EA02321A43C16102622868C16921F4A4
:103650004061C1612868C169A26841EA0221C16173
:1036600046E7000000000140000400400008004060
:10367000000C0040000401400040014000440140B3
:103680000048014000180040001C0040002000409D
:103690002E2E2F447269766572732F53544D333238
:1036A000463478785F48414C5F4472697665722F82
:1036B0005372632F73746D3332663478785F686148
:1036C0006C5F74696D2E630010B5040058D03F49DB
:1036D000206888422BD0B0F1804F28D03C498842E6
:1036E00025D03C49884222D03B4988421FD03B49E3
:1036F00088421CD03A49884219D03A49884216D0AB
:103700003949884213D03949884210D03849884213
:103710000DD0384988420AD03749884207D0374906
:10372000884204D040F2BF7135A003F0BFF9A06811
:1037300060B110280AD0202808D0402806D0602880
:1037400004D04FF4F8612EA003F0B0F9206950B115
:10375000B0F5807F07D0B0F5007F04D040F2C17192
:1037600027A003F0A3F9A06930B1802804D040F26B
:10377000C27123A003F09AF994F83D0010B107E05C
:10378000012010BD002084F83C00204600F054F8D1
:10379000022084F83D00211D206802F047FA012034
:1037A00084F8460084F83E0084F83F0084F8400026
:1037B00084F8410084F8420084F8430084F844000F
:1037C00084F8450084F83D00002010BD0000014051
:1037D0000004004000080040000C004000100040C1
:1037E000001400400004014000400140004401403A
:1037F0000048014000180040001C0040002000402C
:103800002E2E2F447269766572732F53544D3332C6
:10381000463478785F48414C5F4472697665722F10
:103820005372632F73746D3332663478785F6861D6
:103830006C5F74696D2E6300704700002DE9F05FC6
:103840000C0005464FF0000867D0042C6AD0082C05
:103850006DD095F8416095F84570DFF8A49128681F
:10386000DFF8A0A1DFF8A0B1484507D1002C51D066
:10387000042C4FD0082C4DD00C2C4BD0B0F1804FE5
:103880005AD0504506D1ECB3042C43D0082C41D07B
:103890000C2C3FD0584506D1A4B3042C3AD0082CA8
:1038A00038D00C2C36D05949884206D154B3042C58
:1038B00030D0082C2ED00C2C2CD05549884206D163
:1038C00004B3042C26D0082C24D00C2C22D051492F
:1038D000884202D1B4B1042C1CD04F49884200D197
:1038E00084B14E49884200D164B14D49884202D129
:1038F00044B1042C0ED04B49884200D114B14A493E
:10390000884200E006E000D124B140F69B0147A0C8
:1039100003F0CCF8012E1AD117E095F83E6095F827
:1039200042709AE795F83F6095F8437095E795F8EF
:10393000406095F8447090E7002CEBD0042CE9D05F
:10394000082CE7D00C2CE5D0DFE7012F02D00120B6
:10395000BDE8F09F022064B1042C13D0082C1AD0CB
:1039600085F8410085F845000C2C43D04FF0010844
:103970003EE085F83E0085F842002868C16841F0C5
:10398000020110E085F83F0085F843002868C1680F
:1039900041F0040107E085F8400085F844002868FC
:1039A000C16841F00801C16001222146286802F087
:1039B000A1F92868484512D0B0F1804F0FD050458A
:1039C0000DD058450BD01149884208D01049884283
:1039D00005D01049884202D01149884204D181683B
:1039E00001F00701062903D0016841F001010160DF
:1039F0004046ADE72868C16841F01001D3E70000F8
:103A0000000001400004004000080040000C00409D
:103A100000040140004001400044014000480140D2
:103A200000180040001C0040002000402E2E2F44B3
:103A30007269766572732F53544D333246347878F9
:103A40005F48414C5F4472697665722F5372632FF1
:103A500073746D3332663478785F68616C5F746953
:103A60006D2E630070B50446006801694FF00005D3
:103A7000C943890715D4C168C943890711D4E91E10
:103A8000016101202077206880698007204602D0EC
:103A9000FFF7BCFC04E000F031F9204600F01DFB0C
:103AA000257720680169C943490717D4C168C9430C
:103AB000490713D46FF004010161022020772068C8
:103AC000806910F4407F204602D0FFF79FFC04E09D
:103AD00000F014F9204600F000FB2577206801690A
:103AE000C943090716D4C168C943090712D46FF046
:103AF00008010161042020772068C0698007204602
:103B000002D0FFF783FC04E000F0F8F8204600F054
:103B1000E4FA257720680169C943C90617D4C1684A
:103B2000C943C90613D46FF0100101610820207742
:103B30002068C06910F4407F204602D0FFF766FC81
:103B400004E000F0DBF8204600F0C7FA2577206893
:103B50000169C943C90708D1C168C943C90704D16C
:103B6000891E0161204600F0A7FB20680169C94356
:103B7000090609D4C168C943090605D46FF080015C
:103B800001612046FEF714FF20680169C943490618
:103B900009D4C168C943490605D46FF040010161E9
:103BA000204600F0F5FD20680169C94389060BD461
:103BB000C168C943890607D46FF02001016120461E
:103BC000BDE87040FEF7F5BE70BD000070B586B070
:103BD000044614216846FCF79FFB3E4B22680024F4
:103BE0003D49022501263D489A4220D10A6842F00B
:103BF00010020A600A6802F0100205920A6842F098
:103C000001020A60096801F0010105914FF4C04109
:103C10000091CDE90154CDE903466946FDF7F8FF6F
:103C2000E8010090CDE9015469462D4826E0B2F143
:103C3000804F14D02B4B9A4226D1086840F00800E0
:103C400008600868694600F0080005904FF450408D
:103C50000090CDE901542448CDE9034510E00868FF
:103C600040F0020008600868694600F00200059014
:103C70004FF440600090CDE901541C48CDE9034663
:103C8000FDF7C6FF06B070BD194E0323B2420ED138
:103C9000086840F0040008600868694600F0040005
:103CA0000590C0200090CDE9015412480FE0124E5B
:103CB000B242E7D10A6842F010020A60096801F0D6
:103CC0001001059120210091CDE901546946CDE90B
:103CD0000343D5E7000001403038024000100240A5
:103CE0000000024000080040000C024000040240B6
:103CF00000040140000802400040014070470000FD
:103D00002DE9F05F16000D4604464FF000090CD077
:103D1000042E0AD0082E08D00C2E06D03C2E04D03B
:103D200041F2770177A002F0C1FE2868602806D032
:103D3000702804D041F2780172A002F0B7FEA868A2
:103D400030B1022804D041F279016EA002F0AEFE3B
:103D5000286930B1042804D041F27A0169A002F048
:103D6000A5FE94F83C0001281CD001207349744A38
:103D7000744B754FDFF8D4C1DFF8D4A1DFF8D4B1AC
:103D800084F83C004FF0804876B1042E41D0082ED4
:103D90006AD00C2E7DD08146002084F83C00484635
:103DA000BDE8F09F0220FBE7206888421ED0404516
:103DB0001CD090421AD0984218D0B84216D0604514
:103DC00014D0504512D0644988420FD063498842CC
:103DD0000CD058450AD06249884207D061498842D0
:103DE00004D041F2840147A002F060FE2946206819
:103DF00002F00CF82068816941F0080181612068B7
:103E0000816921F004018161206881692A69114377
:103E100028E02068884212D0404510D090420ED051
:103E200098420CD0B8420AD0604508D0504506D020
:103E3000584504D041F2950132A002F037FE2946E0
:103E4000206802F055F82068816941F400618161C1
:103E50002068816921F480618161206881692A6913
:103E600041EA0221816197E7206888420ED04045EF
:103E70000CD090420AD0984208D0B84206D0604593
:103E800004D041F2A6011FA002F010FE29462068CE
:103E900000E010E002F0A2F82068C16941F00801DA
:103EA000C1612068C16921F00401C1612068C16954
:103EB0002A69114324E0206888420ED040450CD086
:103EC00090420AD0984208D0B84206D0604504D04B
:103ED00041F2B7010BA002F0E9FD2946206802F08B
:103EE000F3F82068C16941F40061C1612068C169CB
:103EF00021F48061C1612068C1692A6941EA022117
:103F0000C16149E72E2E2F447269766572732F5373
:103F1000544D3332463478785F48414C5F4472697F
:103F20007665722F5372632F73746D3332663478F3
:103F3000785F68616C5F74696D2E630000000140FA
:103F40000004004000080040000C00400004014054
:103F5000004001400018004000440140004801407A
:103F6000001C00400020004010B5040058D03F491C
:103F7000206888422BD0B0F1804F28D03C4988423D
:103F800025D03C49884222D03B4988421FD03B493A
:103F900088421CD03A49884219D03A49884216D002
:103FA0003949884213D03949884210D0384988426B
:103FB0000DD0384988420AD03749884207D037495E
:103FC000884204D040F2295135A002F06FFDA0686C
:103FD00060B110280AD0202808D0402806D06028D8
:103FE00004D040F22A512EA002F060FD206950B1A9
:103FF000B0F5807F07D0B0F5007F04D040F22B51A0
:1040000027A002F053FDA06930B1802804D040F20F
:104010002C5123A002F04AFD94F83D0010B107E0B6
:10402000012010BD002084F83C00204600F054F828
:10403000022084F83D00211D206801F0F7FD0120D9
:1040400084F8460084F83E0084F83F0084F840007D
:1040500084F8410084F8420084F8430084F8440066
:1040600084F8450084F83D00002010BD00000140A8
:104070000004004000080040000C00400010004018
:104080000014004000040140004001400044014091
:104090000048014000180040001C00400020004083
:1040A0002E2E2F447269766572732F53544D33321E
:1040B000463478785F48414C5F4472697665722F68
:1040C0005372632F73746D3332663478785F68612E
:1040D0006C5F74696D2E6300704770472DE9F05F67
:1040E00005460068DFF86C810227DFF86C91DFF885
:1040F0006CA1DFF86CB15B4E0C46404507D1002C3B
:1041000063D0042C68D0082C6DD00C2C56D0B0F1A4
:10411000804F4CD0484507D1002C56D0042C5BD0A2
:10412000082C60D00C2C49D0504506D1F4B3042C97
:1041300052D0082C57D00C2C40D0584506D1ACB3E7
:10414000042C49D0082C4ED00C2C37D0B04206D1CC
:1041500064B3042C40D0082C45D00C2C2ED04249FE
:10416000884202D114B3042C36D04049884200D191
:10417000E4B13F49884200D1C4B13E49884202D1EE
:10418000A4B1042C28D03C49884200D174B13B49E9
:10419000884200D154B140F2AF5139A002F086FC00
:1041A00024B1042C18D0082C1DD007E00DE064B118
:1041B000042C11D0082C16D00C2CECD195F8410011
:1041C000012817D00120BDE8F09F95F83E00012896
:1041D000F8D185F83E700FE095F83F000128F1D145
:1041E00085F83F7008E095F840000128EAD185F88D
:1041F000407001E085F8417001222146286801F0F5
:1042000079FD2868404501D0B04203D1426C42F4A8
:10421000004242642868404510D0B0F1804F0DD074
:1042200048450BD0504509D0584507D0B04205D07D
:104230000D49884202D00F49884204D1816801F0BB
:104240000701062903D0016841F001010160002047
:10425000B9E70000000001400004004000080040F1
:10426000000C0040000401400040014000440140B7
:104270000048014000180040001C004000200040A1
:104280002E2E2F447269766572732F53544D33323C
:10429000463478785F48414C5F4472697665722F86
:1042A0005372632F73746D3332663478785F68614C
:1042B0006C5F74696D2E630010B5044600688A490E
:1042C000884201D1FDF728FE884884426CD1884994
:1042D0000868401E0860002866DC00231A4619465C
:1042E0001846FCF721FB8349002208460A61426216
:1042F000CB681430F3B3042B58D0082B0B681B6821
:1043000058D01A648B68B3B3042B59D0082B0B68B0
:104310001B6859D01A64CB6873B3042B5BD0082B8D
:104320004B681B685BD01A648B6833B3042B5CD07A
:104330004968082B09685DD00A640169C2680029D0
:1043400070DA82B3042A5CD00368082AC1F1000243
:104350001B685BD01A6482683AB3042A5DD0036894
:10436000082AC1F100021B685DD01A64C2688AB3D2
:10437000042A03E013E01FE028E032E05AD043684B
:10438000082AC1F100021B6859D01A64826882B3FE
:10439000042A58D0082AC1F100017AD075E00B68D0
:1043A0001B685A63AEE727E072E031E00B681B68D8
:1043B0009A63A7E7DA63A5E70B681B685A63AAE765
:1043C0000B681B689A63A6E7DA63A4E74B681B686F
:1043D0005A63A9E729E04B681B689A63A4E7DA638C
:1043E000A2E7496809684A63A7E7496809688A63D8
:1043F000A3E726E0CA63A0E703684A421B685A6342
:10440000A9E703684A421B689A63A4E7DA63A2E754
:1044100003684A421B685A63A8E703684A421B685C
:104420009A63A3E711E0DA63A0E743684A421B6896
:104430005A63ABE743684A421B689A63A6E7DA63AC
:10444000A4E7494244E0494246E01AB3042A25D091
:10445000082A0268126825D01164826822B3042AEF
:1044600026D0082A0268126826D01164C2682AB3CE
:10447000042A27D0082A4268126827D0116482686B
:1044800032B3042A28D0082A2AD040680068016480
:1044900010BD25E0026812685163DEE70268126809
:1044A0009163DAE7D163D8E7026812685163DDE708
:1044B000026812689163D9E7D163D7E7426812684E
:1044C0005163DCE7426812689163D8E7D163D6E7AD
:1044D000406800684163DBE7406800688163D7E7B4
:1044E00040680068C163D3E700140040B8070020AB
:1044F0001C000020F40200202DE9F04704463E4A4B
:104500003E4B3F4D3F4E404FDFF800C1DFF800917A
:1045100000204FF08048D9B104293ED0082955D059
:104520000C2913D1206890420ED040450CD09842FF
:104530000AD0A84208D0B04206D0B84204D041F216
:10454000E25134A002F0B2FA2068006CBDE8F087B6
:10455000206890421ED040451CD098421AD0A842F4
:1045600018D0B04216D0B84214D0604512D03749A6
:1045700088420FD0364988420CD048450AD0354988
:10458000884207D03449884204D041F2C25121A068
:1045900002F08CFA2068406BD8E72068904212D075
:1045A000404510D098420ED0A8420CD0B0420AD05C
:1045B000B84208D0604506D0484504D041F2CC51FD
:1045C00014A002F073FA2068806BBFE72068904265
:1045D0000ED040450CD098420AD0A84208D0B04234
:1045E00006D0B84204D041F2D7510AA002F05EFAD8
:1045F0002068C06BAAE700000000014000040040F2
:1046000000080040000C0040000401400040014050
:10461000001800402E2E2F447269766572732F5356
:10462000544D3332463478785F48414C5F44726968
:104630007665722F5372632F73746D3332663478DC
:10464000785F68616C5F74696D2E6300004401409F
:1046500000480140001C00400020004070B50D469D
:10466000044600683549884219D0B0F1804F16D011
:104670003349884213D03349884210D032498842A6
:104680000DD0324988420AD03149884207D0314999
:10469000884204D041F269512FA002F007FA28683D
:1046A00060B104280AD0052808D0062806D00728BB
:1046B00004D041F26A5128A002F0F8F9686890B17C
:1046C000102810D020280ED030280CD040280AD036
:1046D000502808D0602806D0702804D041F26B51D1
:1046E0001DA002F0E3F994F83C00012813D0012644
:1046F00084F83C60022084F83D002946204601F001
:1047000035FD01004FF0000007D084F83D6084F8CB
:104710003C00012070BD022070BD2168CA6822F0F3
:104720004002CA602168CA6822F48042CA6084F8E4
:104730003D6084F83C00002070BD00000000014096
:104740000004004000080040000C0040000401404C
:1047500000400140001800402E2E2F4472697665FB
:1047600072732F53544D3332463478785F48414C3E
:104770005F4472697665722F5372632F73746D3361
:1047800032663478785F68616C5F74696D2E63009F
:104790007047704710B504460068406994F83D10B2
:1047A000C0F3C010212911D180B12068143050E825
:1047B000001F21F0800140E80012002AF5D1606B53
:1047C00008B1FCF714FF204601F05DFF2068406946
:1047D00094F83E10C0F38010222911D180B12068D6
:1047E000143050E8001F21F0400140E80012002A78
:1047F000F5D1A06B08B1FCF7FAFE204601F01CFFD2
:10480000002010BD70470000F8B501680446086834
:10481000CA684B6910F00F0F4FF0000559D003F034
:10482000010602F49077374365D0C10705D0D10562
:1048300003D5216C41F001012164410705D5D90759
:1048400003D0216C41F002012164810705D5D9070D
:1048500003D0216C41F004012164010707D502F067
:104860002001314303D0216C41F008012164216C07
:1048700000293AD0800604D5900602D5204601F0E2
:1048800010FF20684069216CC0F38010090700D434
:1048900060B3204601F0D0FE20684069400621D573
:1048A0002068143050E8001F21F0400140E8001259
:1048B000002AF5D1A06BA8B16C490165A06BFCF78B
:1048C000DFFE002811D0A06B016D01B0BDE8F04003
:1048D000084783060FD593060DD52046BDE8F8405E
:1048E00001F0DFBE2046FFF78DFFF8BD2046FFF741
:1048F00089FF2564F8BD266B2023012E79D1C606D9
:1049000077D5D60675D5086848680090486940068E
:1049100040D5A16B086840680004000CEAD0A28D65
:104920008242E7D9E085C869B0F5807F2DD0206844
:104930000C3050E8001F21F4807140E80012002A7A
:10494000F5D12068143050E8001F21F0010140E843
:104950000012002AF5D12068143050E8001F21F021
:10496000400140E80012002AF5D184F83E3025636A
:1049700020680C3050E8001F21F0100140E80012C0
:10498000002AF5D1A06BFCF732FEA08DE18D401A14
:1049900081B229E0A08DE18D401A81B2E08D00281E
:1049A000A8D00029A6D020680C3050E8002F22F4AF
:1049B000907240E80026002EF5D12068143050E8AF
:1049C000002F22F0010240E80026002EF5D184F8E5
:1049D0003E30256320680C3050E8002F22F0100292
:1049E00040E80023002BF5D12046FFF7D2FEF8BDAA
:1049F000FFE705062BD5150629D594F83D0021289B
:104A0000F5D1A068B0F5805F01D12069B0B1206A0E
:104A1000411C2162216800784860E08C401E00043F
:104A2000000CE084E3D12068C16821F08001C160FE
:104A30002068C16841F04001C160D8E7206A008861
:104A4000C0F308004860206A801C2062E5E7400649
:104A5000CDD55006CBD5CA68204622F04002CA60A8
:104A600084F83D3000F02BF9C1E7000043650008F1
:104A700070B5040023D0A0693B4900283B4A3C4B59
:104A80003C4D20681DD088420CD090420AD09842FC
:104A900008D0A84206D040F2731137A002F006F801
:104AA000A06908B3A069B0F5807F1DD0B0F5007F84
:104AB0001AD0B0F5407F17D04FF4BA7111E0012041
:104AC00070BD884210D090420ED098420CD0394927
:104AD000884209D03849884206D0A84204D04FF411
:104AE000BC7125A001F0E2FFA06838B1B0F5805F8D
:104AF00004D04FF4BD7120A001F0D8FFE06938B1B7
:104B0000B0F5004F04D040F27B111BA001F0CEFFA6
:104B100094F83D00002520B984F83C50204600F070
:104B20004DF8242084F83D002068C16821F400512C
:104B3000C160204601F016FE2068016921F4904111
:104B400001612068416921F02A0141612068C16842
:104B500041F40051C1602564202084F83D0084F8B0
:104B60003E00002070BD00000010014000440040E5
:104B700000480040001401402E2E2F4472697665D3
:104B800072732F53544D3332463478785F48414C1A
:104B90005F4472697665722F5372632F73746D333D
:104BA00032663478785F68616C5F756172742E6309
:104BB00000000000004C0040005000402DE9F0478C
:104BC00086B0064614216846FBF7A6FB2B493068E1
:104BD000884250D12A480025016841F480210160B3
:104BE000006800F48020059025481038016841F0E5
:104BF0000801016000684FF4807700F008004FF072
:104C000007090097CDE9049001AA02244FF0030898
:104C1000DFF870A082E8300169465046FCF7F8FFE3
:104C20002002CDE9000402AA012082E801036946BE
:104C30005046FCF7EDFF154C13482060F804C4E91A
:104C400001054014C4E903506561C4E906574FF4F7
:104C50004030C4E908052046FCF7F4FD08B1FBF735
:104C6000E0FEB463002205212720A663FDF710FAB9
:104C70002720FDF7DBF906B0BDE8F08700480040CB
:104C800040380240000C024028600240D408002056
:104C900090F83E30202B0ED159B152B190F83C30F3
:104CA000012B08D0012380F83C300023036301F07E
:104CB00029BE012070470220704770477047704737
:104CC000FEE70000104810B50E4901600321416065
:104CD00000214FF400228160C0E903124FF440121A
:104CE00042610176012242768176C1760177417771
:104CF000FCF760FA002803D0BDE81040FBF791BE36
:104D000010BD00000064004070060020094808B58E
:104D1000016841F4001101600068002200F40010F5
:104D2000009005210C20FDF7B3F9BDE808400C20E8
:104D3000FDF77CB93038024010B59CB01C221649F2
:104D40006846FBF7D0FA0021684602F098F9134C48
:104D500011491C2220621C3107A8FBF7C4FA00216C
:104D600007A802F08CF90C4960621C2238310EA8A9
:104D7000FBF7B9FA00210EA802F081F90649A062FA
:104D80001C22543115A8FBF7AEFA002115A802F039
:104D900076F9E0621CB010BDC87D00082800002034
:104DA00070B586B014216846FBF7B6FA4048002477
:104DB000016841F010010160016801F010010591E6
:104DC000016841F004010160016801F004010591EE
:104DD000016841F020010160016801F020010591A6
:104DE000016841F080010160016801F080010591D6
:104DF000016841F001010160016801F001010591C4
:104E0000016841F002010160016801F002010591B1
:104E1000016841F040010160016801F04001059125
:104E2000016841F0080101600068032500F00800F6
:104E3000059049F6DF70CDE90005694602941D48EA
:104E4000FCF7E6FE4FF63F70CDE900056946029497
:104E50001948FCF7DDFE4FF6FF760096CDE90154C8
:104E600069461648FCF7D4FE49F6FF60CDE9000517
:104E7000694602941248FCF7CBFE4FF2EF30CDE9C1
:104E80000005694602940F48FCF7C2FE0096CDE982
:104E9000015469460C48FCF7BBFE42F6FC40CDE9E4
:104EA0000005694602940948FCF7B2FE06B070BDE1
:104EB0003038024000100240000802400014024056
:104EC000000002400004024000180240000C0240B2
:104ED00010B596B000240F9410941194129413946A
:104EE0001C2168461494FBF717FA202107A8FBF74A
:104EF00013FA30482E4901605321C0E9011440F2F1
:104F0000E731C0E9031444618461FDF79FFE08B1F5
:104F1000FBF787FD4FF480500F900FA92548FEF74F
:104F20006DF808B1FBF77DFD2248FFF71DF808B1C9
:104F3000FBF777FD139413A91E481494FDF7DEFDCB
:104F400008B1FBF76EFD6020CDE9000402940394E4
:104F5000049405940022694616480694FEF7D0FE94
:104F600008B1FBF75EFD082269461248FEF7C8FE4D
:104F700008B1FBF756FD0C2269460E48FEF7C0FE4D
:104F800008B1FBF74EFD0794089409944FF40050C4
:104F90000A94CDE90B4007A906480E94FDF70AFDD7
:104FA00008B1FBF73EFD0348FEF710FE16B010BD3A
:104FB000000001409806002010B58EB00024079430
:104FC000089409940A940B941C2168460C94FBF7EE
:104FD000A3F922484FF0804101605321C0E9011438
:104FE00042F20F71C0E9031480218161FDF72EFEAA
:104FF00008B1FBF716FD4FF48050079007A917483A
:10500000FDF7FCFF08B1FBF70CFD1448FEF7ACFF01
:1050100008B1FBF706FD0B940BA910480C94FDF7A3
:105020006DFD08B1FBF7FDFC6020CDE900040294A2
:105030000822694609480494FEF762FE08B1FBF7AE
:10504000F0FC0C2269460548FEF75AFE08B1FBF752
:10505000E8FC0248FEF7BAFD0EB010BDE0060020E5
:1050600030B58FB0002409940A940B94142104A83D
:105070000C94FBF751F92C4803940094019402948A
:105080000D94284901250E94C0E900154FF6FF71D3
:10509000C0E9024104618461FDF7D8FD08B1FBF766
:1050A000C0FC4FF48050099009A91F48FDF7A6FFE6
:1050B00008B1FBF7B6FC1C48FEF706FB08B1FBF78E
:1050C000B0FC042004905020CDE90504079404A905
:1050D00015480894FFF7C2FA08B1FBF7A2FCCDE926
:1050E00000450294002269460F480394FEF790F9A8
:1050F00008B1FBF796FC022000900190042269465B
:105100000948FEF785F908B1FBF78BFC0D940DA952
:1051100005480E94FDF7F2FC002801D0FBF781FC56
:105120000FB030BD000400402807002010B58EB03D
:1051300000240794089409940A940B941C2168464F
:105140000C94FBF7E9F82748254901605321C0E991
:10515000011442F20F71C0E9031480218161FDF74F
:1051600075FD08B1FBF75DFC4FF48050079007A96F
:105170001C48FDF743FF08B1FBF753FC1948FEF745
:10518000F3FE08B1FBF74DFC0B940BA915480C94EA
:10519000FDF7B4FC08B1FBF744FC6020CDE9000446
:1051A0000294002269460F480494FEF7A9FD08B155
:1051B000FBF737FC082269460A48FEF7A1FD08B153
:1051C000FBF72FFC0C2269460648FEF799FD08B153
:1051D000FBF727FC0348FEF7F9FC0EB010BD0000FA
:1051E00000080040700700201CB500240E48009401
:1051F0000C49019401605321C0E9011442F20F717E
:105200008461C160FDF722FD08B1FBF70AFC009440
:10521000694605480194FDF771FC002801D0FBF7B1
:1052200000FC1CBD00100040B807002010B596B06F
:1052300000240F9410941194129413941C21684626
:105240001494FBF769F8202107A8FBF765F82C48B0
:105250002A4901605321C0E9011442F20F71C0E9EB
:10526000031444618461FDF7F1FC08B1FBF7D9FB3D
:105270004FF480500F900FA92148FDF7BFFE08B1F1
:10528000FBF7CFFB1E48FEF76FFE08B1FBF7C9FB2B
:10529000139413A91A481494FDF730FC08B1FBF7D6
:1052A000C0FB6020CDE900040294039404940594AB
:1052B0000022694612480694FEF722FD08B1FBF76A
:1052C000B0FB042269460E48FEF71AFD08B1FBF751
:1052D000A8FB0794089409944FF400500A94CDE970
:1052E0000B4007A906480E94FDF764FB08B1FBF7D5
:1052F00098FB0348FEF76AFC16B010BD000401409D
:105300000008002010B58CB000240794089409947C
:105310001C2168460A94FAF7FFFF1A4818490160F1
:105320005321C0E9011442F20F71C0E90314802136
:105330008161FDF78BFC08B1FBF773FB4FF48050E4
:10534000079007A90F48FDF759FE08B1FBF769FB65
:105350000C48FEF709FE08B1FBF763FB6020CDE9BE
:10536000000402940022694606480494FEF7C8FC33
:1053700008B1FBF756FB0348FEF728FC0CB010BD44
:1053800000400140480800200C4810B50A4901605F
:105390004FF4E1314160002181600C22C160C0E91D
:1053A00004128161C161FFF763FB002803D0BDE8EF
:1053B0001040FBF736BB10BD0048004090080020AD
:1053C000FEE7FDF793F8FEE770B515460C000646BC
:1053D00003D1172108A001F069FB094906EB46003B
:1053E00001EB800000210460C0E9015129462046FC
:1053F000BDE87040FEF772BE7069636B2E630000FB
:105400001C03002070B51F49C0EB001001EB8005A4
:105410002DED028B04216868FFF76EF8441C002113
:105420006868FFF769F8401CFBF7ECF841EC180BD3
:105430002046FBF7E7F89FED141B53EC112BFBF70D
:1054400000F853EC182BFBF76EF8FBF70BF900EEA6
:10545000100ADFED100A0E48104980EE201ADFED29
:105460000E0A80ED000A21EE200A9FED0D1A10EEC3
:10547000100A884201DC30EE200ABDEC028B30EECF
:10548000410A70BD58030020000000000000594090
:10549000180000200000C8420000B44300009B43F5
:1054A00000009B432DE9F0411F462DED048B90B089
:1054B000B0EE418ADDF86880F0EE608AB0EE409A86
:1054C00015460E00044603D13D2118A001F0EEFA66
:1054D0001DB93E2115A001F0E9FA1649C4EB0410EC
:1054E00001EB80043C216846FAF716FF9FED120A93
:1054F00001A80096C8EE800A80E8A00128EE000A04
:105500008DED0C9A3C2269462046CDED0D0A8DEDBD
:105510000E0AFAF7E8FE012104F11800FBF7D4F9AE
:1055200010B0BDEC048BBDE8F081000070697463BD
:10553000682E630058030020000048432DED028BC5
:1055400000252F4F9FED2F8ADFF8BC802F4C0126BE
:105550002F4801F09BFB386800284CDDD8F8040088
:105560006FF013017F3800EB8000800000EE100A1E
:1055700028484246B8EEC00A80ED000AD8F800007C
:105580007F38484300EE100A2348B8EEC00A80ED89
:10559000000AD0687F3800EB8000800000EE100A1F
:1055A0001E48B8EEC00A80ED000AD06901F035FD52
:1055B00000EE100AB8EEC00A84ED070A90687F2852
:1055C00001DD656007E001DA666002E04FF0FF3060
:1055D000606084ED078A10697F2801DB256100E0A7
:1055E000266190697F2801DBE56000E0E660506994
:1055F00001F0FAFC20600A2001F035FDA8E7000068
:105600001C00002000002043FC0300202800002094
:10561000200000200C0000201000002014000020BA
:10562000F848F74F00F10C0500F1180400F13008BC
:105630004FF4FA7B42F21C5A00F124093868002822
:105640006FDBF249F04891ED001AF149D1ED000A03
:10565000F04991ED000A01F0FDFAEB4801F044FA3F
:10566000ED4E96ED070A01F0E1FD306910B1012819
:1056700028D041E0706801287DD0401C7CD0D8F84B
:10568000082042F2B84140468A4235D042685AB1B9
:10569000042A0FD00368082A42F2B7421B680FD0D1
:1056A0001A64C8F8081027E0036842F2B7421B6882
:1056B0005A63F6E7036842F2B7421B689A63F0E761
:1056C000DA63EEE77068012855D0401CD6D0D8F8D0
:1056D000082042F26020414682420DD04A6892B1D1
:1056E000042A16D00B68082A42F25F221B6816D0E3
:1056F000C3F84020C8F80800706898B101283AD073
:10570000401CBBD0A9E10B6842F25F221B685A63C0
:10571000F0E70B6842F25F221B689A63EAE7DA63FC
:10572000E8E7CBE1B068012824D1A96842F25440EF
:1057300081420BD06968E1B304294DD0082929685A
:1057400042F2534209684DD00A64A860A16841F64C
:105750001E6081420BD0616861B304294BD022687E
:10576000082941F61D6112684BD01164A0605846AB
:1057700001F079FC01E087E01AE1A96842F21250D9
:1057800081420BD0696879B3042943D02A6808297B
:1057900042F21151126843D01164A860A16841F629
:1057A000565081420ED0616899B3042940D008292F
:1057B00001E00BE019E0226841F6555112683DD036
:1057C0001164A060706901283AD04DE0296842F266
:1057D000534209684A63B8E7296842F253420968AC
:1057E0008A63B2E7CA63B0E70DE0216841F61D6243
:1057F00009684A63BAE7226841F61D61126891633D
:10580000B4E7D163B2E72A6842F2115112685163DA
:10581000C3E707E02A6842F2115112689163BCE7BE
:10582000D163BAE7226841F6555112685163C8E75F
:10583000226841F6555112689163C2E7D163C0E70F
:10584000D9F80820484652450CD0426872B1042A63
:1058500012D00368082A42F21B521B6812D01A6445
:10586000C9F808A0002070610020F5E0036842F24A
:105870001B521B685A63F3E7036842F21B521B6812
:105880009A63EDE7DA63EBE700203060B068401C14
:105890007ED1A9684FF4FA5081420BD06968C1B338
:1058A00004293ED02A68082941F63F7112683ED08B
:1058B0001164A860A16842F2283081420BD061686F
:1058C00041B304293BD02268082942F227311268EB
:1058D0003BD01164A060584601F0C5FBD8F8081011
:1058E00042F2B842404691420CD0416879B3042953
:1058F00034D00368082942F2B7411B6834D01964D8
:10590000C8F80820584601F0AEFB706901282DD078
:105910003EE000E00DE02A6841F63F7112685163F5
:10592000C7E72A6841F63F7112689163C1E7D16306
:10593000BFE7226842F2273112685163CAE7226842
:1059400042F2273112689163C4E7D163C2E7FFE7EF
:10595000036842F2B7411B685963D1E7036842F21A
:10596000B7411B689963CBE7D963C9E7D9F8082029
:10597000484652450CD0426862B1042A10D00368F0
:10598000082A42F21B521B6810D01A64C9F808A0FA
:10599000012061E0036842F21B521B685A63F5E77D
:1059A000036842F21B521B689A63EFE7DA63EDE784
:1059B0007069012801D088B34CE0B068401C49D020
:1059C000D9F80820484652450CD0426862B1042AF2
:1059D00010D00368082A42F21B521B681FD01A64B9
:1059E000C9F808A0002034E0036842F21B521B688B
:1059F0005A63F5E7036842F21B521B689A63EFE7AC
:105A00001C0000201C030020440100201400002082
:105A1000100000200C0000202800002001E0DA63C4
:105A2000DEE7B068401C15D0D9F8081042F23412F5
:105A3000484691420CD0416801B3042924D0036840
:105A4000082942F233111B6824D01964C9F80820D0
:105A5000012070614FF0FF30B0602C493068096858
:105A600048632B490A6890630968486329490968B3
:105A70004863F06880B101282AD01FE0036842F231
:105A800033111B685963E1E7036842F233111B6865
:105A90009963DBE7D963D9E71F4841F6DC61826887
:105AA0008A420BD042686AB1042A0ED0082A41F615
:105AB000DB621BD003681B681A648160012001F05F
:105AC000D2FABBE541F6DB6216E041F6DB6219E093
:105AD000114842F2B84182688A42EFD042684AB126
