:020000040800F2
:10000000804A0020610200088F520008914B0008CE
:100010008D5200080D090008456900080000000025
:10002000000000000000000000000000A101000826
:10003000210A000800000000FD0100089D5A000888
:100040007B0200087B0200087B0200087B0200089C
:100050007B0200087B0200087B0200087B0200088C
:100060007B0200087B0200087B0200087B0200087C
:10007000710900087B0200087B0200087B0200086F
:100080007B0200087B0200087B0200081D090008B3
:10009000110900087B0200087B0200087B020008AF
:1000A0007B0200087B0200087B0200087B0200083C
:1000B0007B0200087B0200087B0200087B0200082C
:1000C0007B0200087B0200087B0200087B0200081C
:1000D0007B0200087B0200087B020008F968000828
:1000E0007B0200087B0200087B0200087B020008FC
:1000F0007B0200087B0200087B0200087B020008EC
:100100007B0200087B0200087B0200087B020008DB
:100110007B0200087B020008755B0008815B000819
:100120007B0200087B0200087B0200087B020008BB
:100130007B0200087B0200087B0200087B020008AB
:100140007B0200087B0200087B0200087B0200089B
:100150007B0200087B0200087B0200087B0200088B
:100160007B0200087B0200087B0200087B0200087B
:100170007B0200087B0200087B02000800000000F0
:100180007B0200087B020008DFF810D000F08AFB39
:1001900000480047456C0008AFF30080804A00200B
:1001A0002C4B19680868B0E8F04F80F30988BFF35A
:1001B0006F8F4FF0000080F311887047000000003F
:1001C00008480068006880F308884FF0000080F35A
:1001D000148862B661B6BFF34F8FBFF36F8F00DF35
:1001E00000BF00BF08ED00E0DFF80C00016841F43B
:1001F00070010160704700BF88ED00E0EFF30980F7
:10020000BFF36F8F134B1A681EF0100F08BF20ED5D
:10021000108A20E9F04F106009B44FF0500080F3CD
:100220001188BFF34F8FBFF36F8F07F09BFB4FF029
:10023000000080F3118809BC19680868B0E8F04F25
:100240001EF0100F08BFB0EC108A80F30988BFF3CE
:100250006F8F704790000020EFF30580704700001B
:100260000648804706480047FEE7FEE7FEE7FEE750
:10027000FEE7FEE7FEE7FEE7FEE7FEE7655B000858
:10028000890100082DE9F05F0546002092469B4653
:1002900088460646814640241BE02846414647469C
:1002A000224600F00AFA53465A46C01A914110D32A
:1002B00011461846224600F0F1F92D1A67EB0108A5
:1002C0004F4622460120002100F0E8F917EB000913
:1002D0004E41201EA4F10104DFDC484631462A4687
:1002E0004346BDE8F09F40EA01039B0703D009E0C5
:1002F00008C9121F08C0042AFAD203E011F8013B12
:1003000000F8013B521EF9D27047D2B201E000F86A
:10031000012B491EFBD270470022F6E710B51346A9
:100320000A4604461946FFF7F0FF204610BDF0B418
:1003300080EA0102D40F4200B2EB410F02D2024622
:10034000084611464A0042D0C30DDDB2C1F3C75280
:10035000AD1A202D35DAC1F3160141F4000204B1C3
:100360005242C5F1200602FA06F12A411044B3EBCD
:10037000D05F23D0C4B1012DA0EBC35009DCF0BC89
:100380004FF0004202EAC352DBB200F5000000F079
:10039000ADB9400000F1807000EBC350A0F1807057
:1003A00040EAD170490009E0490841EAC071A0EB78
:1003B000C35000F50000400800EBC350F0BC00F053
:1003C0008CB96142012202EB4101001BF6E7F0BC4F
:1003D000704781F00041AAE780F00040A7E780EA7B
:1003E000010210B502F00043400022D04A001FD0A5
:1003F000010E01EB1261C0F35600C2F3560240F445
:10040000000042F40002A0FB022000047F39140423
:1004100000D0401C50EA124001D44000491EC2B234
:100420000C0604EBD010401C4008802A02D003E0E8
:10043000002010BD20F00100002900DA0020184340
:1004400010BD2DE9FE4F81EA030404F0004421F0C1
:10045000004100944FF0000B23F0004350EA0104E8
:100460005ED052EA03045BD0C3F30A54C1F30A55C9
:100470002C44A4F2F3340194A0FB0254C1F3130101
:1004800041F48011C3F3130343F4801301FB0244CE
:1004900000FB034E840A970A44EA815447EA8357D3
:1004A000A4FB076802958D0A05FB07854FEA932C8C
:1004B00004FB0C542705029D4FEA065847EA1637FD
:1004C000B5EB08056EEB070C870E920E47EA811715
:1004D00042EA8312A7FB0201B6EB0B0164EB0004B6
:1004E0002B0D43EA0C335E1844EB1C50DA465146A0
:1004F000E7FB0201C5F313044FEA0B3343EA14533D
:100500004FEA0432019C43EA0603A4F10C0402946E
:10051000009CCDE900B400F026F903B0BDE8F08FEF
:1005200000200146F9E72DE9F04D81EA030404F0CB
:10053000004B21F0004514464FF0000A23F0004123
:1005400050EA050220D054EA01021DD0C5F30A5733
:100550000246C5F31303C1F31300C1F30A5640F476
:10056000801543F48013A7EB0608101BD64608F24B
:10057000FD3873EB050002D308F1010801E0921881
:100580005B41B8F1000F03DA00200146BDE8F08DB1
:1005900000204FF48011064684460EE0171B73EBD3
:1005A000050705D3121B63EB050306434CEA010C58
:1005B00049084FEA300092185B4150EA0107EDD13B
:1005C00052EA030012D082EA040083EA05010843DC
:1005D00005D0101BAB4106D20122002306E0002209
:1005E0004FF0004302E06FF0010253101AEB0600D7
:1005F0004CEB085110EB0A0041EB0B01BDE8F04D4C
:1006000000F0A2B80EB5C10F80EAE0700844CA0736
:10061000002140F233438DE80E000A460B4600F0FD
:10062000A2F803B000BD70B5C1F30A5201F0004555
:100630000024C1F3130140F2FF3341F480119A42C8
:1006400001DA002070BD40F233439A42A2F23342F5
:1006500003DC524200F031F800E090402C43F1D02E
:10066000404270BD01F0004330B421F0004150EA37
:10067000010206D00A0DA2F56072C1F31301002A2F
:1006800002DC30BC00207047440F44EAC104C100C2
:10069000E01830BC00EBC25000F01FB8202A04DB89
:1006A000203A00FA02F1002070479140C2F1200385
:1006B00020FA03F3194390407047202A04DB203AC4
:1006C00021FA02F00021704721FA02F3D040C2F172
:1006D000200291400843194670470029A8BF70477F
:1006E000401C490008BF20F00100704710B4B0FA68
:1006F00080FC00FA0CF050EA010404BF10BC704703
:1007000049B1CCF1200421FA04F411FA0CF118BF1C
:10071000012121430843A3EB0C01CB1D4FEA0061EB
:100720004FEA102042BF002010BC704700EBC350BE
:1007300010440029A4BF10BC7047401C490008BFEA
:1007400020F0010010BC704710B5141E73F10004B6
:1007500008DA401C41F1000192185B411A4301D1B3
:1007600020F0010010BD2DE9F04D92469B4611B1DD
:10077000B1FA81F202E0B0FA80F220329046FFF73F
:100780008DFF04460F4640EA0A0041EA0B0153463A
:100790005A46084313D0114653EA010019D0C8F154
:1007A00040025046FFF789FF05460E46504659461F
:1007B0004246FFF773FF084305D0012004E02046BE
:1007C0003946BDE8F08D0020054346EAE0762C432B
:1007D00037430A986305E40AA0EB08000022FD0AEB
:1007E00044EA47540A3002D500200146E9E70105F2
:1007F00010196941DDE9084500196941BDE8F04D6E
:10080000A2E72DE9F04D00231A461B1A8A4103DBAB
:1008100000200146BDE8F08DC1F30A52C1F3130177
:1008200041F480154FF0000BD10702D100186D4143
:10083000521E0027044640F2FF11384601EB620ABF
:100840003E468046024600204FF48011FFF735FFF8
:10085000C2197141BB1846EB0100B4EB030C75EBF8
:10086000000C04D3E41A65EB000517460E46241964
:1008700008F101006D4180463428E3DDF91946EBAB
:100880000600091BA84103D24FF0FF32134601E0D6
:10089000002213461BEB070046EB0A51BDE8F04D62
:1008A000FFF752BF064C074D06E0E06840F0010339
:1008B00094E8070098471034AC42F6D3FFF768FC81
:1008C000B47D0008D47D00082DE9F041D0E9066729
:1008D000056A884604464FF0404185602846FFF788
:1008E0007EFD3146FFF775FD606030463946FFF703
:1008F0001EFD2946FFF71BFD2060B8F1000F1EBF4B
:100900000020C4E903006061BDE8F081FEE700005B
:10091000014800F051BB000078060020014800F0BB
:100920004BBB00007806002038B50E4C4FF4007524
:1009300025600025A560E560082525610A4C050AAB
:1009400025706070080AA070E170100A2071627151
:10095000180AA071E3716B4622460249034800F071
:10096000BDF838BD440100200100002078060020B9
:10097000014800F097BE0000E80800200168182335
:10098000CAB2103AB2FBF3F2054B6FF30901032A26
:100990009B5CC36500D9091D81650846704700004E
:1009A000647D000810B5014600208B698A6A4FF00B
:1009B000C07453B1B3F5005F15D072B1012A0CD0E9
:1009C000022A0AD0032A09D104E01AB1012A06D06A
:1009D000022A03D1C96AC90100D5012010BDC96A24
:1009E000A142FAD010BD002AF7D0012AF2D0022A83
:1009F000F3D0032AF3D010BD30B50468256825F480
:100A000080252560046863608368402B036803D0F9
:100A100099600068C26030BD9A600068C16030BDF6
:100A2000704772B6FEE700002DE9F0410D460C4913
:100A300000EB800086B001EB80041F4616461421AF
:100A40006846DDF83080FFF767FC8DE8E00114228E
:100A500069462046FFF747FC06B0BDE8F08100007C
:100A60001C03002070B590F820600D4604460C4829
:100A7000814204D94FF4D0610AA005F0C7FF012ECE
:100A800007D0022E05D0606A40F480206062012009
:100A900070BD2068416929434161002070BD00009C
:100AA0007F8F03002E2E2F447269766572732F5349
:100AB000544D3332463478785F48414C5F44726914
:100AC0007665722F5372632F73746D333266347888
:100AD000785F68616C5F63616E2E63002DE9F0479B
:100AE00090F82080994616460D46044600688768AF
:100AF000886830B1042804D040F2E9414EA005F0E6
:100B000085FFE86830B1022804D040F2EA414AA0EB
:100B100005F07CFF2869082804D940F2EB4146A083
:100B200005F074FFA86800281BD06868B0F1005F6A
:100B300004D340F2F24140A005F068FF287D30B1B7
:100B4000012804D040F2F4413BA005F05FFFB8F16A
:100B5000010F0DD0B8F1020F0AD0606A40F4802076
:100B600066E02868B0F5006FE8D340F2EE41E2E7B6
:100B700017F0406F01D1F80057D5C7F30160022884
:100B800003D9606A40F4000052E001218140C9F8B5
:100B90000010AA684FF4C0719AB1EB681A436B68F1
:100BA00042EAC302236801EB0017DA514FF4C27224
:100BB000276802EB00122B69BB502B7D012B05D05F
:100BC00009E02B88EA6842EA4352EBE723689D5824
:100BD00045F480759D503279F379757942EA036264
:100BE000B3791B0443EA05231A434FF4C6752368FF
:100BF00005EB00155A513278F378757842EA0362B2
:100C0000B3781B0443EA05231A434FF4C4752368E1
:100C100005EB00155A51226801EB0010115841F004
:100C2000010111500020BDE8F087606A40F4001017
:100C300060620120F7E700002E2E2F44726976656E
:100C400072732F53544D3332463478785F48414C99
:100C50005F4472697665722F5372632F73746D33BC
:100C600032663478785F68616C5F63616E2E630012
:100C700070B50C4690F82010012907D0022905D044
:100C8000416A41F480214162012070BD20684FF427
:100C90008035A84204D34FF4547163A005F0B6FE2A
:100CA0006068A84204D340F251315FA005F0AEFE67
:100CB000A068A84204D340F252315BA005F0A6FE22
:100CC000E068A84204D340F2533157A005F09EFEDD
:100CD000A06930B1012804D04FF4557152A005F03D
:100CE00095FEE06930B1012804D040F255314EA0A4
:100CF00005F08CFE206930B1012804D040F2563155
:100D000049A005F083FE206A30B1012804D040F2EA
:100D1000573145A005F07AFE6069514D1B2804D972
:100D200040F2723140A005F071FE606A1B2804D9C0
:100D300040F273313CA005F069FED5F8000240F0A6
:100D40000100C5F80002D5F8000220F47C50C5F877
:100D50000002D5F80002616A40EA0120C5F80002ED
:100D6000207D00F01F0101208840D5F81C1281432E
:100D7000C5F81C12E169B1B9D5F80C128143C5F868
:100D80000C12A289616862F31F41626905EBC2021D
:100D9000C2F840122289216862F31F41626905EBA3
:100DA000C202C2F84412E169012916D1D5F80C1229
:100DB0000143C5F80C122288616862F31F41626921
:100DC00005EBC202C2F840122289E16862F31F41BA
:100DD000626905EBC202C2F84412A1690029D5F884
:100DE00004120FD051EA0001C5F80412216900294C
:100DF000D5F8141208D00143C5F81412216A01294C
:100E000004D008E08143EFE78143F5E7D5F81C12F1
:100E10000143C5F81C12D5F8000220F00100C5F806
:100E20000002002070BD00002E2E2F4472697665EE
:100E300072732F53544D3332463478785F48414CA7
:100E40005F4472697665722F5372632F73746D33CA
:100E500032663478785F68616C5F63616E2E630020
:100E60000064004003480068416941F002014161AB
:100E700070470000780600202DE9F04190F82080AE
:100E80001D4617460E00044606D0012E04D04FF42E
:100E9000BE613BA005F0BAFDB8F1010F06D0B8F174
:100EA000020F03D0606A40F480205EE02068002ECC
:100EB00056D00069800755D04FF4D870216800EBF8
:100EC0000610095811F00401B960216809584FD083
:100ED000C90879602168085800F00200F8604FF4F2
:100EE000DA70216800EB0610095801F00F01396132
:100EF00021680958C1F30721B96121680858000C1D
:100F000078614FF4DC70216800EB061009582970F5
:100F100021680958090A697021680958090CA970E3
:100F200021680858000EE8704FF4DE70216800EB6D
:100F300006100958297121680958090A6971216840
:100F40000958090CA97121680858000EE871206839
:100F50008EB1016941F0200101610020BDE8F081FE
:100F6000C068A7E7606A40F4001060620120F5E7FE
:100F7000490D3960AEE7C16841F02001C160ECE77E
:100F80002E2E2F447269766572732F53544D33326F
:100F9000463478785F48414C5F4472697665722FB9
:100FA0005372632F73746D3332663478785F68617F
:100FB0006C5F63616E2E63002DE9F05F054600688B
:100FC00000244669D0F804908768D0F80CB0D0F8B7
:100FD00010A0D0F81880F10748D0F90714D00121EB
:100FE0008160B80703D5284600F0FBFA0CE07807CB
:100FF00002D54FF4006407E0380702D54FF480545F
:1010000002E0284600F0ECFAF80516D529684FF4FE
:1010100080708860B80503D5284600F0E4FA0CE03B
:10102000780502D544F4005407E0380502D544F4AD
:10103000804402E0284600F0D5FAF80316D5296866
:101040004FF480308860B80303D5284600F0CDFA0D
:101050000CE0780302D544F4004407E0380302D5DD
:1010600044F4803402E0284600F0BEFA300707D589
:101070005FEACB6004D52968102044F40074C8608E
:1010800070074FF0080707D55FEA0B7004D5286892
:10109000C760284600F03EFAB00706D52868C06849
:1010A000800702D0284600F037FA700607D55FEABD
:1010B000CA6004D52968102044F480640861B00631
:1010C00007D55FEA0A7004D528680761284600F052
:1010D00057FAF00606D528680069800702D028462E
:1010E00000F04FFAB00308D55FEAC96005D529685A
:1010F00010204860284600F045FAF00307D55FEA63
:10110000097004D528684760284600F06FFA30045B
:1011100046D55FEA497040D5F00504D55FEAC8704E
:1011200001D044F00104B00504D55FEA887001D510
:1011300044F00204700504D55FEA487001D544F01C
:101140000404300529D518F0700F26D008F070007F
:10115000402815D006DC102809D020280AD03028D5
:1011600016D10AE050280ED0602811D10EE044F0CC
:1011700008040DE044F010040AE044F0200407E005
:1011800044F0400404E044F0800401E044F480743E
:101190002868816921F07001816129680420486014
:1011A000002C05D0686A204368622846FFF75AFE83
:1011B000BDE8F09F70B504007ED0A4492068884245
:1011C00007D0A349884204D040F21D11A1A005F028
:1011D0001DFC207E30B1012804D04FF48F719DA0FA
:1011E00005F014FC607E30B1012804D040F21F11DC
:1011F00098A005F00BFCA07E30B1012804D04FF47C
:10120000907194A005F002FCE07E30B1012804D07A
:1012100040F221118FA005F0F9FB207F30B10128A9
:1012200004D04FF491718BA005F0F0FB607F30B1DA
:10123000012804D040F2231186A005F0E7FBA06846
:1012400068B1B0F1804F0AD0B0F1004F07D0B0F1D3
:10125000404F04D04FF492717EA005F0D7FBE068B8
:1012600068B1B0F1807F0AD0B0F1007F07D0B0F153
:10127000407F04D040F2251176A005F0C7FB20691D
:1012800098B3B0F5803F30D0B0F5003F2DD0B0F529
:10129000403F2AD0B0F5802F27D0B0F5A02F24D022
:1012A000B0F5C02F21D0B0F5E02F1ED0B0F5002F43
:1012B0001BD0B0F5102F00E041E016D0B0F5202F84
:1012C00013D0B0F5302F10D0B0F5402F0DD0B0F5C1
:1012D000502F0AD0B0F5602F07D0B0F5702F04D092
:1012E0004FF493715BA005F091FB6069C8B1B0F554
:1012F000801F16D0B0F5001F13D0B0F5401F10D0DE
:10130000B0F5800F0DD0B0F5A00F0AD0B0F5C00F2A
:1013100007D0B0F5E00F04D040F227114DA005F042
:1013200075FB6068401EB0F5806F04D34FF4947174
:1013300048A005F06BFB94F8200010B104E00120F8
:1013400070BD204600F0A2F82068016841F001015C
:10135000016000F0C9FD0546052604E000F0C4FD6B
:10136000401B0A2811D820684068C007F6D02068C2
:10137000016821F00201016000F0B6FD05460BE0B6
:1013800000F0B2FD401B0A2806D9606A40F4003024
:10139000606284F82060D2E7206840688007EFD45C
:1013A000207E0128206801683DD021F08001016085
:1013B000607E01282068016838D021F0400101607A
:1013C000A07E01282068016833D021F0200101604F
:1013D000E07E0128206801682ED041F010010160F4
:1013E000207F01282068016829D021F008010160D0
:1013F000607F01282068016824D021F00401016089
:10140000D4E902010843D4E9041211430843616896
:10141000491E08432168C86100206062012084F8E9
:101420002000002070BD41F08001C0E741F0400184
:10143000C5E741F02001CAE721F01001CFE741F0F4
:101440000801D4E741F00401D9E70000006400403E
:10145000006800402E2E2F447269766572732F53F8
:10146000544D3332463478785F48414C5F4472695A
:101470007665722F5372632F73746D3332663478CE
:10148000785F68616C5F63616E2E630010B586B033
:10149000044614216846FEF73FFF1B492068884236
:1014A0002FD11A480021026842F0007202600068E1
:1014B00000F00070059015481038026842F00802EC
:1014C00002600068022200F0080005900320CDE9C8
:1014D0000210CDE900020920049069460C4800F092
:1014E00085FB00220521132000F036FE132000F0BA
:1014F00001FE00220521142000F02EFE142000F031
:10150000F9FD06B010BD0000006400404038024004
:10151000000C02407047000000B58BB001AB03AA7D
:101520000021FFF7A9FC0398A0F2012006281AD891
:101530001049C0B200EB800208700F4901EB420075
:1015400031F812300381BDF804305BBA21F8123053
:10155000BDF8061049BA4180BDF8081049BA81802B
:101560009DF80A10817102210448FFF77BFA0BB045
:1015700000BD000000000020FC00002078060020D4
:10158000704770477047000070B5044690F820001F
:10159000012804D0606A40F40020606218E0022054
:1015A00084F820002068016821F00101016000F04A
:1015B0009BFC05460EE000BF00F096FC401B0A288D
:1015C00008D9606A40F400306062052084F8200089
:1015D000012070BD20684068C007EDD1606270BD19
:1015E00070477047704770477047704770472DE9E4
:1015F000F0410446876D00F077FC064694F835000C
:101600000025022806D08020606584F8345001202F
:10161000BDE8F0812068016821F0160101602068B2
:10162000416921F080014161206C08B9A06C20B1B2
:101630002068016821F0080101602068016821F03C
:10164000010101600CE000F04FFC801B052807D968
:1016500020206065032084F8350084F83450D7E7F3
:1016600020680068C007EED194F85C103F208840E5
:10167000B860012084F8350084F834500020C7E7B2
:1016800090F83510022903D0802141650120704770
:10169000052180F835100068016821F00101016022
:1016A000002070472DE9F84304464FF00009CDF8BB
:1016B000009063484FF41651A56D0068B0FBF1F738
:1016C0002E6894F85C10082000FA01F131420FD026
:1016D00021680A6852070BD50A6822F004020A60E2
:1016E00094F85C108840A860606D40F0010060656F
:1016F00094F85C104FF0010808FA01F0304208D06D
:1017000021684969090604D5A860606D40F00200AF
:10171000606594F85C1004208840304208D021684D
:101720000968890704D5A860606D40F00400606511
:1017300094F85C1010208840304218D02168096865
:10174000090714D5A86020680168490304D500681A
:10175000000308D5A16C07E00168C90503D401683E
:1017600021F008010160216C09B12046884794F8F6
:101770005C1020208840304231D021680968C906B9
:101780002DD5A86094F8350005282068016806D09A
:10179000490347D5006800031DD4616C1CE021F0AB
:1017A000160101602068416921F080014161206CCF
:1017B00008B9A06C20B12068016821F0080101601F
:1017C00094F85C103F208840A86084F8358084F845
:1017D0003490216D1FE0E16B09B120468847606DB0
:1017E00000282BD0606DC00714D0052084F8350088
:1017F0002068016821F0010101600098401C009000
:10180000B84203D820680068C007F6D184F8358054
:1018100084F83490E16C002910D001B02046BDE876
:10182000F04308470168C905D5D4016821F01001CB
:10183000016084F8358084F83490CCE7BDE8F88303
:101840008C0000202DE9F041044600F04DFB0546D8
:10185000002C7CD0A249206888423ED0A049183193
:1018600088423AD09E493031884236D09C4948312E
:10187000884232D09A49603188422ED098497831D6
:1018800088422AD096499031884226D09449A8317E
:10189000884222D0934988421FD092491831884209
:1018A0001BD090493031884217D08E494831884248
:1018B00013D08C49603188420FD08A4978318842F0
:1018C0000BD088499031884207D08649A831884298
:1018D00003D0B72184A005F099F86068C0B1B0F1D9
:1018E000007F15D0B0F1806F12D0B0F1C06F0FD073
:1018F000B0F1006F0CD0B0F1206F09D0B0F1406FA3
:1019000006D0B0F1606F03D0B82177A005F07EF863
:10191000A06838B1402805D0802803D0B92172A032
:1019200005F074F8E068B0F5007F04D018B1BA2172
:101930006DA005F06BF82069B0F5806F04D018B188
:10194000BB2169A005F062F8606958B100E071E060
:10195000B0F5006F06D0B0F5805F03D0BC2162A067
:1019600005F054F8A06948B1B0F5005F06D0B0F5B5
:10197000804F03D0BD215CA005F048F8E06940B17C
:10198000B0F5807F05D0202803D0BE2156A005F0F9
:101990003DF8206A60B1B0F5803F09D0B0F5003F56
:1019A00006D0B0F5403F03D0BF214FA005F02EF880
:1019B000606A002832D0042806D0C0214AA005F071
:1019C00025F8606A002829D0A06A48B1012807D00C
:1019D000022805D0032803D0C52143A005F016F83E
:1019E000E06A60B1B0F5000F09D0B0F1807F06D099
:1019F000B0F1C07F03D0C6213BA005F007F8206BF3
:101A000060B1B0F5001F09D0B0F5800F06D0B0F579
:101A1000C00F03D0C72134A004F0F8FF022084F8DF
:101A20003500002684F834602068016821F0010147
:101A300001600EE00120BDE8F08100BF00F054FA23
:101A4000401B052805D920206065032084F8350057
:101A5000F1E720680068C007F0D1226811683048BB
:101A60000140D4E901031843D4E903352B4318435B
:101A700063691843A3691843E3691843236A184349
:101A80000843616A042903D1D4E90B1319430843BD
:101A9000106020684069656A20F007002946054308
:101AA000012704290CD1A06A0543E06A40B1204611
:101AB000FEF778FF20B14020606584F83570B9E703
:101AC000206845612046FEF759FF94F85C203F21CD
:101AD00091408160666584F835700020ABE70000B6
:101AE00010600240106402402E2E2F447269766509
:101AF00072732F53544D3332463478785F48414CDB
:101B00005F4472697665722F5372632F73746D33FD
:101B100032663478785F68616C5F646D612E630053
:101B20003F8010F02DE9F04789460446876D002577
:101B3000581E4FF6FF711E469046884204D340F26D
:101B4000CB111CA004F062FF94F8340001280DD0E2
:101B5000012084F8340094F835100020012907D0C2
:101B600084F8340002252846BDE8F0870220FBE710
:101B7000022184F8351060653346424649462046C6
:101B8000FEF73AFF94F85C103F208840B860206868
:101B9000016841F016010160206C20B120680168E5
:101BA00041F0080101602068016841F00101016015
:101BB000D9E700002E2E2F447269766572732F5379
:101BC000544D3332463478785F48414C5F447269F3
:101BD0007665722F5372632F73746D333266347867
:101BE000785F68616C5F646D612E63002DE9F84F6A
:101BF000DFF888B20D46044658451BD0A048844201
:101C000018D0A048844215D09F48844212D09F48E3
:101C100084420FD09E4884420CD09E48844209D012
:101C20009D48844206D09D48844203D0AC219CA0AC
:101C300004F0ECFE28680104090C01D0000C03D06C
:101C4000AD2197A004F0E2FE6868F8B101281DD02C
:101C500011281BD0022819D0122817D0B0F5881FE0
:101C600014D0B0F5041F11D0B0F5441F0ED0B0F55C
:101C7000901F0BD0B0F5081F08D0B0F5481F05D055
:101C8000032803D0AE2186A004F0C0FE00264FF04A
:101C9000010A4FF0030900BF0AFA06F02F688046D8
:101CA000074047457ED1287900F00300012801D084
:101CB00002281DD1E86848B1012807D0022805D0C4
:101CC000032803D0C02176A004F0A0FEA168720012
:101CD00009FA02F08143E86890400843A060606818
:101CE000297920EA0800C1F30011B1400143616085
:101CF0002879C043800712D0A86838B1012805D0E0
:101D0000022803D0D12166A004F080FEE1687200B1
:101D100009FA02F08143A86890400843E0602879FE
:101D200000F0030002282ED12869F8B109281DD03F
:101D300001281BD0022819D0032817D0042815D059
:101D4000052813D0062811D007280FD008280DD059
:101D50000A280BD00B2809D00C2807D00D2805D055
:101D60000F2803D0DE214EA004F050FEF00804EB53
:101D70008002106A7107CB0E0F21994088432969B0
:101D80009940014311622068720009FA02F1884308
:101D9000297901F00301914001432160686810F442
:101DA000403F00E063E062D04C48016841F480416C
:101DB0000160006826F0030100F48040009048486C
:101DC0000A18D2F80808B1070B0F0F219940884371
:101DD0005C4501D1002123E029498C4201D1012138
:101DE0001EE028498C4201D1022119E026498C428B
:101DF00001D1032114E025498C4201D104210FE0D7
:101E000023498C4201D105210AE022498C4201D1AB
:101E1000062105E020498C4201D1072100E008217C
:101E200099400143C2F808182E4908686A68B84307
:101E3000D20200D5384308602A49091D08686A683B
:101E4000B843920200D5384308602649091F086844
:101E50006A68B843920300D53843086021490839BD
:101E600008686A68B843D20300D538430860761C16
:101E7000102EFFF411AFBDE8F88F00000000024003
:101E80000004024000080240000C02400010024022
:101E90000014024000180240001C024000200240D2
:101EA0002E2E2F447269766572732F53544D333240
:101EB000463478785F48414C5F4472697665722F8A
:101EC0005372632F73746D3332663478785F686150
:101ED0006C5F6770696F2E63000000004438024039
:101EE00000300140083C0140014880687047000014
:101EF0008000002070B5040033D026492068884255
:101F000003D0AE2124A004F081FD606878B10128DF
:101F10000DD002280BD0032809D0042807D00528AB
:101F200005D0062803D0AF211BA004F06FFDA068E8
:101F3000B0F5805F03D3B02117A004F067FD2168DE
:101F40004CF6CC400860216845F255500860D4E951
:101F5000000141602168A0688860FFF7C5FF054661
:101F60000DE0012070BD00BFFFF7BEFF401B312810
:101F700005D92068C068800701D0032070BD2068A3
:101F8000C0688007F0D121684AF6AA2008600020C6
:101F900070BD0000003000402E2E2F44726976651F
:101FA00072732F53544D3332463478785F48414C26
:101FB0005F4472697665722F5372632F73746D3349
:101FC00032663478785F68616C5F697764672E6326
:101FD0000000000000684AF6AA2101600020704756
:101FE00002488168027811448160704780000020B7
:101FF0000B4810B5016841F400710160016841F4BB
:1020000080610160016841F480710160032000F08B
:10201000F3F80F2000F006F800F050F8002010BD93
:10202000003C024030B505461F4887B000240168D7
:1020300041F020010160006806A900F02000009036
:1020400001A800F047FA0498A8B100F063FA400034
:102050001649174AB0FBF1F11648491E026040F2DA
:10206000E732C0E90324C0E90114846100F052FEA4
:10207000040003D015E000F04DFAE9E70D4800F048
:102080009FFF04000DD1372000F034F8102D07D247
:1020900000222946372000F05FF80748056000E07D
:1020A000012407B0204630BD4038024040420F00B6
:1020B0000014004048090020840000200C4882B031
:1020C000016841F480410160006800F480400090A4
:1020D0000748001F016841F080510160006800223C
:1020E00000F0805000900F21901E02B000F034B834
:1020F0004438024010B5040003D5BC2107A004F009
:1021000085FC002C09DB04F01F01012088406109D7
:10211000890001F1E021C1F8000110BD2E2E2F44ED
:102120007269766572732F53544D33324634787822
:102130005F48414C5F4472697665722F5372632F1A
:1021400073746D3332663478785F68616C5F636F87
:10215000727465782E63000070B515460C4606460D
:10216000102A03D3A82114A004F050FC102C03D390
:10217000A92111A004F04AFC1E480068C0F3022304
:10218000C3F107022046042A00D90422191D072999
:1021900001D2002300E0DB1E012404FA02F1491EF3
:1021A000014099409C40641E2C4021433046BDE8CC
:1021B000704004F0C8BB00002E2E2F447269766573
:1021C00072732F53544D3332463478785F48414C04
:1021D0005F4472697665722F5372632F73746D3327
:1021E00032663478785F68616C5F636F72746578AB
:1021F0002E6300000CED00E010B5044607280BD05C
:10220000062C09D0052C07D0042C05D0032C03D0B4
:10221000902108A004F0FAFB154904F007020868B1
:102220004FF6FF03184040EA0220124A10430860AC
:1022300010BD00002E2E2F447269766572732F53E5
:10224000544D3332463478785F48414C5F4472696C
:102250007665722F5372632F73746D3332663478E0
:10226000785F68616C5F636F727465782E630000DD
:102270000CED00E00000FA05704700002DE9F04782
:102280000E4604007DD02068401E0E2804D940F27E
:102290005A217AA004F0BAFB96B1012E10D0022E7A
:1022A0000ED0032E0CD0042E0AD0052E08D0062EF8
:1022B00006D0072E04D040F25B2170A004F0A6FBEC
:1022C000DFF8F081D8F80000F7B200F00700B04264
:1022D00007D288F80070D8F8000000F00700B0427C
:1022E0004FD12068744D810729D5400703D5286850
:1022F00040F4E05028602078000703D5286840F4B7
:1023000060402860A068A0B1802812D0902810D02A
:10231000A0280ED0B0280CD0C0280AD0D02808D0D1
:10232000E02806D0F02804D040F27E2153A004F02B
:102330006DFB2868A16820F0F00008432860207831
:10234000C00743D0DFF870916068A9F1080988B12F
:10235000012822D0022824D0032822D040F285214F
:1023600046A004F053FB6068012816D0022818D05C
:10237000032816D0D9F800008007002833DA28682F
:1023800000E030E0616820F0030008432860FFF7B8
:10239000ABFD814641F2883A11E0D9F80000800394
:1023A000EBE7D9F800008001E7E700BFFFF79CFDED
:1023B000A0EB0901514502D90320BDE8F087286848
:1023C000616800F00C00B0EB810FEFD1D8F800107D
:1023D000404601F00701B14207D90770006800F0DC
:1023E0000700B04201D00120E7E720784FF4805683
:1023F00040074FF4A0574FF4C0584FF4E05914D59C
:10240000E06860B1B0420AD0B84208D0404506D07A
:10241000484504D040F2C32118A004F0F7FA286818
:10242000E16820F4E050084328602078000715D5C3
:10243000206960B1B0420AD0B84208D0404506D009
:10244000484504D040F2CA210CA004F0DFFA286805
:10245000216920F4604040EAC100286000F07AF869
:102460002968164AC1F30311515CC8401449086039
:1024700014480068FFF7D6FD00209EE72E2E2F445B
:102480007269766572732F53544D333246347878BF
:102490005F48414C5F4472697665722F5372632FB7
:1024A00073746D3332663478785F68616C5F726321
:1024B000632E6300003C0240083802406C7D000837
:1024C0008C0000208400002001490120C86470476E
:1024D000000047420F2202600C4A136803F0030316
:1024E0004360136803F0F0038360136803F4E05360
:1024F000C36012684FF4E05303EAD2020261044859
:10250000006800F0070008607047000008380240CB
:10251000003C02400448054900680968044AC1F3C8
:102520008221515CC84070478C000020083802406E
:102530007C7D00080448054900680968044AC1F325
:102540004231515CC84070478C000020083802407E
:102550007C7D0008154810B5006810F00C02144886
:1025600013D04110042A0FD0082A0ED10F4C241F7B
:102570002268236802F03F025B0207D52068C0F39F
:102580008810A0FB010106E0084610BD2168C1F3D8
:102590008811A1FB00010023FDF774FE2168C1F33F
:1025A0000141491C4900B0FBF1F010BD0838024060
:1025B0000024F400054810B50068000605D5FFF7B3
:1025C0005BFE02498020891C087010BD0C38024057
:1025D0002DE9F84F04007DD020680F2803D9E621AB
:1025E000F7A004F013FA2078DFF80C94C007A9F1E3
:1025F000040555D060684FF480364FF4A02738B1F9
:10260000B04205D0B84203D0EB21EDA004F0FEF9B2
:10261000F948001D0168C1F38101012908D0006853
:10262000C0F3810002280AD1D9F80000400206D583
:102630002868800334D560680028CCD030E060681A
:10264000B04203D1286840F480300CE0B8422868DA
:1026500003D140F480202860F4E720F48030286023
:10266000286820F480202860606860B1FFF73CFC97
:10267000064604E0FFF738FC801B64287ED82868F3
:102680008003F7D50CE0FFF72FFC064605E000BFFE
:10269000FFF72AFC801B6428F0D828688003F7D451
:1026A0002078DFF8588380074FF0000A56D5E0689D
:1026B00030B1012804D040F21D11C1A004F0A6F9E8
:1026C00020691F2804D94FF48F71BDA004F09EF932
:1026D000C94800E092E0001D016811F00C0F08D01D
:1026E0000068C0F38100022810D1D9F80000400230
:1026F0000CD42868800702D5E06801287ED12868BC
:10270000216920F0F80040EAC10017E0E068B8B1A4
:102710000120C8F80000FFF7E7FB064605E000BF10
:10272000FFF7E2FB801B0228A8D828688007F7D5AE
:10273000286820F0F801206941EAC00028600DE017
:10274000C8F800A0FFF7D0FB064604E0FFF7CCFB7B
:10275000801B022892D828688007F7D420780007C9
:102760002ED5A54EA64F60697036D0B1012808D08D
:102770004FF4AF7192A004F049F900E04BE16069B9
:1027800078B101203860FFF7AFFB074605E000BFD6
:10279000FFF7AAFBC01B0228C6D830688007F7D510
:1027A0000EE0C7F800A0FFF79FFB074605E000BF5B
:1027B000FFF79AFBC01B0228B6D830688007F7D411
:1027C0002078400776D5A068002740B1012806D0C0
:1027D000052804D04FF4C57179A004F017F9DFF88B
:1027E00018B20BF13C0BDBF80000C0000DD4DBF895
:1027F000001041F08051CBF8001000E038E1DBF828
:102800000000012700F0805000907E4E3068C00527
:1028100011D4306840F480703060FFF765FB0090A1
:1028200006E000BFFFF760FB0099401A022891D82C
:102830003068C005F6D5704EA0686C3601280FD000
:102840000528306810D020F001003060306820F09A
:1028500004003060A068B8B1FFF746FB00900FE0BD
:10286000306840F00100F4E740F004003060F7E722
:10287000FFF73AFB0099411A41F2883081428BD828
:1028800030688007F4D50EE0FFF72EFB009007E0DC
:10289000FFF72AFB0099411A41F2883081428BD818
:1028A00030688007F4D42FB1DBF8001021F080519C
:1028B000CBF80010A069002876D0012809D00228A2
:1028C00007D040F2CD113EA004F0A0F8A069002886
:1028D000F2D04948001D0068C0F381000228A069B9
:1028E0006DD0022805D0C8F860A0FFF7FDFA0446B5
:1028F00094E0E06938B1B0F5800F04D04FF4EB718B
:102900002FA004F083F8206A3F2804D940F2D711A1
:102910002BA004F07BF8606A3238B0F5BF7F04D991
:102920004FF4EC7126A004F071F8A06A02280AD0D6
:10293000042808D0062806D0082804D040F2D9116F
:102940001FA004F063F8E06A801E0D2804D94FF43C
:10295000ED711BA004F05AF84746C8F860A0FFF7D5
:10296000C3FA064605E000BFFFF7BEFA801B022847
:1029700051D828688001F7D4D4E907010843A16A37
:10298000214A490802EB0141626A41EA8211084387
:1029900094F82C1040EA0161C9F800100120386653
:1029A000FFF7A2FA044606E064E000BFFFF79CFAD6
:1029B000001B02282FD828688001F7D55AE031E0A3
:1029C0002E2E2F447269766572732F53544D333215
:1029D000463478785F48414C5F4472697665722F5F
:1029E0005372632F73746D3332663478785F686125
:1029F0006C5F7263632E630004380240000047423C
:102A0000800E4742007000400000FFFFFFF76CFAA5
:102A1000001B022802D90320BDE8F88F2868800136
:102A2000F4D427E00128F7D0D9F80000E26900F4D7
:102A3000800191421CD1226A00F03F01914217D1DE
:102A400047F6C071626A0140B1EB821F10D1A26AE1
:102A50004FF0FF3300F4403103EB5202B1EB024F71
:102A600006D194F82C1000F07060B0EB016F01D02B
:102A70000120D1E70020CFE77047704770B50C46C2
:102A8000054600683E49884207D03E49884204D046
:102A900040F2EE713CA003F0B9FF2068B0F5006F82
:102AA00005D020B140F2EF7137A003F0AFFF6068AE
:102AB000B0F5806F05D020B14FF4FE6132A003F075
:102AC000A5FFA06868B1B0F5807F0AD0B0F5007F9F
:102AD00007D0B0F5407F04D040F2F1712AA003F096
:102AE00095FFE068FF2804D940F2F27126A003F0B8
:102AF0008DFF2069B0F5805F05D020B140F2F37101
:102B000021A003F083FF606938B1B0F5005F04D005
:102B100040F2F4711CA003F079FFE069B0F5804F3A
:102B200005D020B140F2F57117A003F06FFF95F8C2
:102B30003C00012822D0012085F83C00E068A26812
:102B400020F440701043626820F4806010432268D3
:102B500020F400601043226920F480501043626921
:102B600020F400501043E269002120F4804010431B
:102B70002A68506485F83C10002070BD022070BDAA
:102B800000000140000401402E2E2F44726976653A
:102B900072732F53544D3332463478785F48414C2A
:102BA0005F4472697665722F5372632F73746D334D
:102BB00032663478785F68616C5F74696D5F6578E0
:102BC0002E6300002DE9F05F044600683A4E3B4F4B
:102BD000DFF8EC80DFF8EC90DFF8ECA00D464FF06A
:102BE000804BB04215D0584513D0B84211D0404563
:102BF0000FD048450DD04FEAB641884209D033493D
:102C0000884206D0504504D040F2B17130A003F0A4
:102C1000FDFE286890B1102810D020280ED0302852
:102C20000CD040280AD0502808D0602806D0702840
:102C300004D040F2B27126A003F0E8FE6868802854
:102C400005D020B140F2B37121A003F0DFFE94F86B
:102C50003C0001282DD0012284F83C20022084F879
:102C60003D00216848688B6820F0700C286840EAB5
:102C70000C0048602068B0420FD058450DD0B842D3
:102C80000BD0404509D0484507D0504505D01F49D5
:102C9000884202D01E49884204D1696823F080032B
:102CA0001943816084F83D20002084F83C00BDE891
:102CB000F09F0220FBE700000000014000040040FC
:102CC00000080040000C00400004014000140040D7
:102CD0002E2E2F447269766572732F53544D333202
:102CE000463478785F48414C5F4472697665722F4C
:102CF0005372632F73746D3332663478785F686112
:102D00006C5F74696D5F65782E6300000040014060
:102D10000018004010B5040058D03F492068884290
:102D20002BD0B0F1804F28D03C49884225D03C4977
:102D3000884222D03B4988421FD03B4988421CD060
:102D40003A49884219D03A49884216D039498842CE
:102D500013D03949884210D0384988420DD03849BB
:102D600088420AD03749884207D03749884204D080
:102D700040F2131135A003F049FEA06860B110289D
:102D80000AD0202808D0402806D0602804D04FF46C
:102D90008A712EA003F03AFE206950B1B0F5807F11
:102DA00007D0B0F5007F04D040F2151127A003F042
:102DB0002DFEA06930B1802804D04FF48B7123A080
:102DC00003F024FE94F83D0010B107E0012010BD8F
:102DD000002084F83C00204600F054F8022084F8DB
:102DE0003D00211D206802F0D1FE012084F846003C
:102DF00084F83E0084F83F0084F8400084F84100E5
:102E000084F8420084F8430084F8440084F84500C4
:102E100084F83D00002010BD000001400004004087
:102E200000080040000C004000100040001400406A
:102E300000040140004001400044014000480140BE
:102E400000180040001C0040002000402E2E2F449F
:102E50007269766572732F53544D333246347878E5
:102E60005F48414C5F4472697665722F5372632FDD
:102E700073746D3332663478785F68616C5F74693F
:102E80006D2E630070B586B0044614216846FDF7C8
:102E900043FA2268424C414800234149143C022530
:102EA000824219D1086840F001000860086800F00B
:102EB00001000590206840F001002060206800F0CB
:102EC0000100059088150090CDE901530120CDE95E
:102ED0000330694633481FE03148001FB2F1804F8C
:102EE0001ED0314EB24223D1016841F0020101608F
:102EF000006800F002000590206840F002002060A9
:102F00002068694600F00200059010200090CDE98D
:102F10000153CDE903352548FEF768FE06B070BDC4
:102F2000016841F001010160006800F0010009E062
:102F30001F4B9A4208D1016841F00401016000680A
:102F400000F004000590E9E71A4B9A4210D101689D
:102F500041F0100101600068002200F010000590AF
:102F600005213620FFF7F8F83620FFF7C3F8D5E73C
:102F70001148824207D1086840F0020008600868E2
:102F800000F00200DEE70D488242C7D1086840F435
:102F900080300860086800F48030D3E7000001400A
:102FA0004438024000000240000400400004024097
:102FB00000080040001000400004014000400140B3
:102FC0002DE9F05F044600682F4D304E304FDFF89A
:102FD000C480DFF8C490DFF8C4A0DFF8C4B0A84212
:102FE00026D0B0F1804F23D0B04221D0B8421FD0BC
:102FF00040451DD04FEAB541884219D02949884241
:1030000016D0484514D0504512D0274988420FD0D9
:10301000264988420CD058450AD02549884207D015
:103020002449884204D040F2CF1123A003F0EEFCE3
:1030300094F83D00012802D00120BDE8F09F022055
:1030400084F83D002068C16841F00101C16020683A
:10305000A8420ED0B0F1804F0BD0B04209D0B84298
:1030600007D0404505D0484503D0504501D05845CC
:1030700004D1816801F00701062903D0016841F0FD
:10308000010101600020D8E7000001400004004079
:1030900000080040000C00400004014000400140D6
:1030A0000018004000140040004401400048014066
:1030B000001C0040002000402E2E2F4472697665CF
:1030C00072732F53544D3332463478785F48414CF5
:1030D0005F4472697665722F5372632F73746D3318
:1030E00032663478785F68616C5F74696D2E630056
:1030F0002DE9F84F05460020009095F83C000C465D
:10310000012841D0012085F83C00022085F83D00CF
:1031100020684FF4805B584516D0702814D0B0F565
:10312000005F11D040280FD050280DD060280BD060
:1031300050B1102808D0202806D0302804D041F201
:10314000B741D4A003F062FC2868816821F07701C0
:1031500021F47F4181602068DC49DD4ADD4BDE4E91
:10316000DE4FDFF87CC3DFF87C834FF080494FF4FB
:10317000004A50287ED00FDC202804D007DC00282D
:10318000FBD0102877D161E10220BDE8F88F30280C
:10319000F9D04028F6D126E160286DD0702874D08F
:1031A000584544D04FF400584045EBD12868884238
:1031B0000ED048450CD090420AD0984208D0B04278
:1031C00006D0B84204D041F2E241B2A003F01EFCA6
:1031D000A06858B1584509D0404507D0B0F5405FC8
:1031E00004D041F2E541ABA003F010FC606850450B
:1031F00009D040B1022806D00A2804D041F2E641A5
:10320000A4A003F003FCE0680F2804D941F2E741D1
:10321000A0A003F0FBFBD4E90121E368286802F0D9
:1032200093FD2868816841F48041816029E1286824
:103230008842FBD04845F9D09042F7D09842F5D06B
:10324000B042F3D0A8498842F0D0A8498842EDD0D6
:10325000B842EBD06045E9D0A5498842E6D0A549FF
:103260008842E3D04045E1D0A3498842DED0A3495B
:10327000884203E04FE002E180E006E0D6D041F270
:10328000C34184A003F0C2FBFBE02868884212D04F
:10329000484510D090420ED098420CD0B0420AD08F
:1032A000B84208D0604506D0404504D041F2CA413A
:1032B00078A003F0ABFBA06860B158450AD0B0F528
:1032C000005F07D0B0F5405F04D041F2CD4171A05E
:1032D00003F09CFB6068504509D040B1022806D03D
:1032E0000A2804D041F2CE416AA003F08FFBE068C7
:1032F0000F2804D941F2CF4166A003F087FBD4E93F
:103300000121E368286802F01FFD2968886840F001
:1033100077008860B5E02868884212D0484510D010
:1033200090420ED098420CD0B0420AD0B84208D099
:10333000604506D0404504D041F2F64155A003F067
:1033400065FB6068504509D040B1022806D00A28C4
:1033500004D041F2F9414FA003F058FBE0680F2878
:1033600004D941F2FA414BA003F050FBE2686168D6
:10337000286803F017F85021286831E0286888424F
:1033800012D0484510D090420ED098420CD0B04296
:103390000AD0B84208D0604506D0404504D041F27A
:1033A00006513CA003F032FB6068504509D040B1A3
:1033B000022806D00A2804D041F2095135A003F0B2
:1033C00025FBE0680F2804D941F20A5131A003F02F
:1033D0001DFBE2686168286803F036F86021286800
:1033E00002F0BCFC4DE02868884212D0484510D05D
:1033F00090420ED098420CD0B0420AD0B84208D0C9
:10340000604506D0404504D041F2165121A003F09A
:10341000FDFA6068504509D040B1022806D00A285C
:1034200004D041F219511BA003F0F0FAE0680F2814
:1034300004D941F21A5117A003F0E8FAE268616872
:10344000286802F0AFFF40212868C9E72868884251
:1034500012D0484510D090420ED098420CD0B042C5
:103460000AD0B84208D0604506D0404504D041F2A9
:10347000295108A003F0CAFA21682868B0E70120A2
:103480000090012085F83D00002085F83C00009860
:103490007BE600002E2E2F447269766572732F53DF
:1034A000544D3332463478785F48414C5F447269FA
:1034B0007665722F5372632F73746D33326634786E
:1034C000785F68616C5F74696D2E63000000014075
:1034D0000004004000080040000C004000040140CF
:1034E000004001400018004000100040001400405F
:1034F0000044014000480140001C00400020004002
:10350000704700002DE9F84F054600200090924FCB
:103510002868DFF84882DFF84892DFF848A2DFF831
:1035200048B216460C46B84221D0B0F1804F1ED0AA
:1035300040451CD048451AD0504518D0584516D0A3
:103540008A49884213D08A49884210D089498842E2
:103550000DD0894988420AD08849884207D08849D5
:10356000884204D041F2120186A003F04FFA20688D
:1035700040B1022806D00A2804D041F2130181A0EC
:1035800003F044FA6068012808D0022806D0032816
:1035900004D041F214017BA003F038FAA06850B1C6
:1035A000042808D0082806D00C2804D041F21501C0
:1035B00074A003F02BFAE0680F2804D941F2160139
:1035C00070A003F023FA95F83C00012810D00120E8
:1035D00085F83C0076B1042E1CD0082E45D00C2E68
:1035E0007CD00090002085F83C000098BDE8F88F62
:1035F0000220FBE7D4E90012E368286802F0E4FE49
:103600002868816921F00C01816128688169A268BC
:10361000114328E02868B84215D0B0F1804F12D08D
:10362000404510D048450ED050450CD058450AD0E2
:103630004E49884207D05049884204D041F22C01BB
:1036400050A003F0E3F9D4E90012E368286802F01F
:103650000DFF2868816921F44061816128688169D2
:10366000A26841EA02218161BCE72868B8420FD014
:10367000B0F1804F0CD040450AD0484508D05045A5
:1036800006D0584504D041F23C013EA003F0BEF9FB
:103690002868D4E90027267B016A21F48071016241
:1036A000C169036A21F00301394321F0F0073107B2
:1036B0004FF4206647EA116123F4206306EA0222F0
:1036C0001A43C16102622868C16921F00C01C1611D
:1036D0002868C169A26811433BE0FFE72868B84247
:1036E0000FD0B0F1804F0CD040450AD0484508D0EB
:1036F000504506D0584504D041F24C0121A003F0BA
:1037000085F92868D4E90021E668036A23F4805328
:103710000362C769036A27F4407747EA012121F46D
:1037200070474FF6FF7101EA063139434FF42046E6
:1037300023F4204306EA02321A43C1610262286878
:10374000C16921F44061C1612868C169A26841EA88
:103750000221C16146E70000000001400004004072
:1037600000080040000C00400004014000400140FF
:10377000004401400048014000180040001C004087
:10378000002000402E2E2F447269766572732F53ED
:10379000544D3332463478785F48414C5F44726907
:1037A0007665722F5372632F73746D33326634787B
:1037B000785F68616C5F74696D2E630010B50400FA
:1037C00058D03F49206888422BD0B0F1804F28D094
:1037D0003C49884225D03C49884222D03B49884216
:1037E0001FD03B4988421CD03A49884219D03A49F7
:1037F000884216D03949884213D03949884210D0BE
:10380000384988420DD0384988420AD03749884221
:1038100007D03749884204D040F2BF7135A003F089
:10382000F5F8A06860B110280AD0202808D04028F8
:1038300006D0602804D04FF4F8612EA003F0E6F81B
:10384000206950B1B0F5807F07D0B0F5007F04D07B
:1038500040F2C17127A003F0D9F8A06930B18028E7
:1038600004D040F2C27123A003F0D0F894F83D00D8
:1038700010B107E0012010BD002084F83C00204674
:1038800000F054F8022084F83D00211D206802F069
:103890007DF9012084F8460084F83E0084F83F005A
:1038A00084F8400084F8410084F8420084F8430022
:1038B00084F8440084F8450084F83D00002010BDE1
:1038C000000001400004004000080040000C0040DF
:1038D000001000400014004000040140004001407E
:1038E000004401400048014000180040001C004016
:1038F000002000402E2E2F447269766572732F537C
:10390000544D3332463478785F48414C5F44726995
:103910007665722F5372632F73746D333266347809
:10392000785F68616C5F74696D2E6300704700009A
:103930002DE9F05F0C0005464FF0000867D0042C1D
:103940006AD0082C6DD095F8416095F84570DFF885
:10395000A4912868DFF8A0A1DFF8A0B1484507D1FD
:10396000002C51D0042C4FD0082C4DD00C2C4BD017
:10397000B0F1804F5AD0504506D1ECB3042C43D05F
:10398000082C41D00C2C3FD0584506D1A4B3042CB0
:103990003AD0082C38D00C2C36D05949884206D160
:1039A00054B3042C30D0082C2ED00C2C2CD05549DC
:1039B000884206D104B3042C26D0082C24D00C2C29
:1039C00022D05149884202D1B4B1042C1CD04F49B5
:1039D000884200D184B14E49884200D164B14D493A
:1039E000884202D144B1042C0ED04B49884200D108
:1039F00014B14A49884200E006E000D124B140F603
:103A00009B0147A003F002F8012E1AD117E095F8A8
:103A10003E6095F842709AE795F83F6095F84370DC
:103A200095E795F8406095F8447090E7002CEBD04E
:103A3000042CE9D0082CE7D00C2CE5D0DFE7012FCF
:103A400002D00120BDE8F09F022064B1042C13D005
:103A5000082C1AD085F8410085F845000C2C43D07D
:103A60004FF001083EE085F83E0085F842002868E6
:103A7000C16841F0020110E085F83F0085F843007D
:103A80002868C16841F0040107E085F8400085F826
:103A900044002868C16841F00801C1600122214644
:103AA000286802F0D7F82868484512D0B0F1804F56
:103AB0000FD050450DD058450BD01149884208D041
:103AC0001049884205D01049884202D011498842E5
:103AD00004D1816801F00701062903D0016841F093
:103AE000010101604046ADE72868C16841F010015E
:103AF000D3E700000000014000040040000800403F
:103B0000000C00400004014000400140004401401E
:103B10000048014000180040001C00400020004008
:103B20002E2E2F447269766572732F53544D3332A3
:103B3000463478785F48414C5F4472697665722FED
:103B40005372632F73746D3332663478785F6861B3
:103B50006C5F74696D2E630070B50446006801697E
:103B60004FF00005C943890715D4C168C9438907C7
:103B700011D4E91E01610120207720688069800747
:103B8000204602D0FFF7BCFC04E000F019F9204603
:103B900000F005FB257720680169C943490717D460
:103BA000C168C943490713D46FF0040101610220C1
:103BB00020772068806910F4407F204602D0FFF70C
:103BC0009FFC04E000F0FCF8204600F0E8FA2577BE
:103BD00020680169C943090716D4C168C9430907A8
:103BE00012D46FF008010161042020772068C069B9
:103BF0008007204602D0FFF783FC04E000F0E0F8E5
:103C0000204600F0CCFA257720680169C943C9062F
:103C100017D4C168C943C90613D46FF010010161FC
:103C2000082020772068C06910F4407F204602D029
:103C3000FFF766FC04E000F0C3F8204600F0AFFA9E
:103C4000257720680169C943C90708D1C168C943FC
:103C5000C90704D1891E0161204600F08FFB20684E
:103C60000169C943090609D4C168C943090605D4D5
:103C70006FF0800101612046FEF7FEFE20680169B9
:103C8000C943490609D4C168C943490605D46FF040
:103C900040010161204600F0E3FC20680169C9434E
:103CA00089060BD4C168C943890607D46FF0200187
:103CB00001612046BDE87040FEF7DFBE70BD000028
:103CC00070B586B0044614216846FCF725FB2468CD
:103CD000324E00223249022301253248B4420AD131
:103CE0000C6844F010040C60096801F010010591A3
:103CF0004FF4C0414AE0B4F1804F14D02A4DAC4299
:103D000025D1086840F0080008600868694600F09E
:103D1000080005904FF410400090CDE9013223488F
:103D2000CDE903230FE0086840F00200086008684E
:103D3000694600F0020005904FF440600090CDE924
:103D400001321B4826E0FDF751FF06B070BD194E49
:103D50000325B4420ED1086840F0040008600868EA
:103D6000694600F00400059040200090CDE9013242
:103D700011480FE0114EB442E7D10C6844F0100432
:103D80000C60096801F01001059120210091CDE936
:103D900001326946CDE90325D5E700000000014066
:103DA000303802400010024000080040000C024081
:103DB00000040240000401400008024000400140AD
:103DC000704700002DE9F05F16000D4604464FF0E5
:103DD00000090CD0042E0AD0082E08D00C2E06D0D4
:103DE0003C2E04D041F2770177A002F00FFE286844
:103DF000602806D0702804D041F2780172A002F049
:103E000005FEA86830B1022804D041F279016EA005
:103E100002F0FCFD286930B1042804D041F27A0197
:103E200069A002F0F3FD94F83C0001281CD00120A9
:103E30007349744A744B754FDFF8D4C1DFF8D4A1CD
:103E4000DFF8D4B184F83C004FF0804876B1042EFE
:103E500041D0082E6AD00C2E7DD08146002084F8F7
:103E60003C004846BDE8F09F0220FBE720688842FE
:103E70001ED040451CD090421AD0984218D0B8426B
:103E800016D0604514D0504512D0644988420FD0F6
:103E9000634988420CD058450AD06249884207D00D
:103EA0006149884204D041F2840147A002F0AEFD8E
:103EB0002946206801F05AFF2068816941F0080115
:103EC00081612068816921F0040181612068816934
:103ED0002A69114328E02068884212D0404510D05A
:103EE00090420ED098420CD0B8420AD0604508D01B
:103EF000504506D0584504D041F2950132A002F059
:103F000085FD2946206801F0A3FF2068816941F4FE
:103F1000006181612068816921F48061816120688C
:103F200081692A6941EA0221816197E72068884214
:103F30000ED040450CD090420AD0984208D0B842EA
:103F400006D0604504D041F2A6011FA002F05EFD3C
:103F50002946206800E010E001F0F0FF2068C16908
:103F600041F00801C1612068C16921F00401C1610B
:103F70002068C1692A69114324E0206888420ED074
:103F800040450CD090420AD0984208D0B84206D0A2
:103F9000604504D041F2B7010BA002F037FD29467D
:103FA000206802F041F82068C16941F40061C161F4
:103FB0002068C16921F48061C1612068C1692A69F2
:103FC00041EA0221C16149E72E2E2F4472697665CC
:103FD00072732F53544D3332463478785F48414CD6
:103FE0005F4472697665722F5372632F73746D33F9
:103FF00032663478785F68616C5F74696D2E630037
:10400000000001400004004000080040000C004097
:1040100000040140004001400018004000440140FD
:1040200000480140001C00400020004010B5040082
:1040300058D03F49206888422BD0B0F1804F28D01B
:104040003C49884225D03C49884222D03B4988429D
:104050001FD03B4988421CD03A49884219D03A497E
:10406000884216D03949884213D03949884210D045
:10407000384988420DD0384988420AD037498842A9
:1040800007D03749884204D040F2295135A002F0C8
:10409000BDFCA06860B110280AD0202808D04028B4
:1040A00006D0602804D040F22A512EA002F0AEFCC7
:1040B000206950B1B0F5807F07D0B0F5007F04D003
:1040C00040F22B5127A002F0A1FCA06930B180285A
:1040D00004D040F22C5123A002F098FC94F83D004B
:1040E00010B107E0012010BD002084F83C002046FC
:1040F00000F054F8022084F83D00211D206801F0F2
:1041000045FD012084F8460084F83E0084F83F0015
:1041100084F8400084F8410084F8420084F84300A9
:1041200084F8440084F8450084F83D00002010BD68
:10413000000001400004004000080040000C004066
:104140000010004000140040000401400040014005
:10415000004401400048014000180040001C00409D
:10416000002000402E2E2F447269766572732F5303
:10417000544D3332463478785F48414C5F4472691D
:104180007665722F5372632F73746D333266347891
:10419000785F68616C5F74696D2E6300704770476B
:1041A0002DE9F05F05460068DFF86C810227DFF833
:1041B0006C91DFF86CA1DFF86CB15B4E0C464045AA
:1041C00007D1002C63D0042C68D0082C6DD00C2CA7
:1041D00056D0B0F1804F4CD0484507D1002C56D076
:1041E000042C5BD0082C60D00C2C49D0504506D153
:1041F000F4B3042C52D0082C57D00C2C40D0584586
:1042000006D1ACB3042C49D0082C4ED00C2C37D09E
:10421000B04206D164B3042C40D0082C45D00C2CFD
:104220002ED04249884202D114B3042C36D04049E2
:10423000884200D1E4B13F49884200D1C4B13E492F
:10424000884202D1A4B1042C28D03C49884200D134
:1042500074B13B49884200D154B140F2AF5139A00A
:1042600002F0D4FB24B1042C18D0082C1DD007E098
:104270000DE064B1042C11D0082C16D00C2CECD11C
:1042800095F84100012817D00120BDE8F09F95F86E
:104290003E000128F8D185F83E700FE095F83F0008
:1042A0000128F1D185F83F7008E095F84000012819
:1042B000EAD185F8407001E085F84170012221467D
:1042C000286801F0C7FC2868404501D0B04203D1FE
:1042D000426C42F4004242642868404510D0B0F17C
:1042E000804F0DD048450BD0504509D0584507D0D8
:1042F000B04205D00D49884202D00F49884204D10E
:10430000816801F00701062903D0016841F001012D
:1043100001600020B9E700000000014000040040F7
:1043200000080040000C0040000401400040014033
:10433000004401400048014000180040001C0040BB
:10434000002000402E2E2F447269766572732F5321
:10435000544D3332463478785F48414C5F4472693B
:104360007665722F5372632F73746D3332663478AF
:10437000785F68616C5F74696D2E630010B50446E8
:1043800000680D49884201D1FDF72AFE0B4884429E
:1043900011D10B490868401E086000280BDC9FED16
:1043A000090A02F0A9FE0023BDE810401A4619468A
:1043B0001846FCF7B9BA10BD00140040CC07002025
:1043C0001C00002000005C432DE9F04704463E4AF3
:1043D0003E4B3F4D3F4E404FDFF800C1DFF80091AC
:1043E00000204FF08048D9B104293ED0082955D08B
:1043F0000C2913D1206890420ED040450CD0984231
:104400000AD0A84208D0B04206D0B84204D041F247
:10441000E25134A002F0FAFA2068006CBDE8F0879F
:10442000206890421ED040451CD098421AD0A84225
:1044300018D0B04216D0B84214D0604512D03749D7
:1044400088420FD0364988420CD048450AD03549B9
:10445000884207D03449884204D041F2C25121A099
:1044600002F0D4FA2068406BD8E72068904212D05E
:10447000404510D098420ED0A8420CD0B0420AD08D
:10448000B84208D0604506D0484504D041F2CC512E
:1044900014A002F0BBFA2068806BBFE7206890424E
:1044A0000ED040450CD098420AD0A84208D0B04265
:1044B00006D0B84204D041F2D7510AA002F0A6FAC1
:1044C0002068C06BAAE70000000001400004004023
:1044D00000080040000C0040000401400040014082
:1044E000001800402E2E2F447269766572732F5388
:1044F000544D3332463478785F48414C5F4472699A
:104500007665722F5372632F73746D33326634780D
:10451000785F68616C5F74696D2E630000440140D0
:1045200000480140001C00400020004070B50D46CE
:10453000044600683549884219D0B0F1804F16D042
:104540003349884213D03349884210D032498842D7
:104550000DD0324988420AD03149884207D03149CA
:10456000884204D041F269512FA002F04FFA286826
:1045700060B104280AD0052808D0062806D00728EC
:1045800004D041F26A5128A002F040FA686890B164
:10459000102810D020280ED030280CD040280AD067
:1045A000502808D0602806D0702804D041F26B5102
:1045B0001DA002F02BFA94F83C00012813D001262C
:1045C00084F83C60022084F83D002946204601F032
:1045D0007DFD01004FF0000007D084F83D6084F8B5
:1045E0003C00012070BD022070BD2168CA6822F025
:1045F0004002CA602168CA6822F48042CA6084F816
:104600003D6084F83C00002070BD000000000140C7
:104610000004004000080040000C0040000401407D
:1046200000400140001800402E2E2F44726976652C
:1046300072732F53544D3332463478785F48414C6F
:104640005F4472697665722F5372632F73746D3392
:1046500032663478785F68616C5F74696D2E6300D0
:104660007047704710B504460068406994F83D10E3
:10467000C0F3C010212911D180B12068143050E856
:10468000001F21F0800140E80012002AF5D1606B84
:1046900008B1FCF7ACFF204601F0A5FF2068406997
:1046A00094F83E10C0F38010222911D180B1206807
:1046B000143050E8001F21F0400140E80012002AA9
:1046C000F5D1A06B08B1FCF792FF204601F064FF22
:1046D000002010BD70470000F8B501680446086866
:1046E000CA684B6910F00F0F4FF0000559D003F066
:1046F000010602F49077374365D0C10705D0D10594
:1047000003D5216C41F001012164410705D5D9078A
:1047100003D0216C41F002012164810705D5D9073E
:1047200003D0216C41F004012164010707D502F098
:104730002001314303D0216C41F008012164216C38
:1047400000293AD0800604D5900602D5204601F013
:1047500058FF20684069216CC0F38010090700D41D
:1047600060B3204601F018FF20684069400621D55B
:104770002068143050E8001F21F0400140E800128A
:10478000002AF5D1A06BA8B16C490165A06BFCF7BC
:1047900077FF002811D0A06B016D01B0BDE8F0409B
:1047A000084783060FD593060DD52046BDE8F8408F
:1047B00001F027BF2046FFF78DFFF8BD2046FFF729
:1047C00089FF2564F8BD266B2023012E79D1C6060A
:1047D00077D5D60675D508684868009048694006C0
:1047E00040D5A16B086840680004000CEAD0A28D97
:1047F0008242E7D9E085C869B0F5807F2DD0206876
:104800000C3050E8001F21F4807140E80012002AAB
:10481000F5D12068143050E8001F21F0010140E874
:104820000012002AF5D12068143050E8001F21F052
:10483000400140E80012002AF5D184F83E3025639B
:1048400020680C3050E8001F21F0100140E80012F1
:10485000002AF5D1A06BFCF7CAFEA08DE18D401AAD
:1048600081B229E0A08DE18D401A81B2E08D00284F
:10487000A8D00029A6D020680C3050E8002F22F4E0
:10488000907240E80026002EF5D12068143050E8E0
:10489000002F22F0010240E80026002EF5D184F816
:1048A0003E30256320680C3050E8002F22F01002C3
:1048B00040E80023002BF5D12046FFF7D2FEF8BDDB
:1048C000FFE705062BD5150629D594F83D002128CC
:1048D000F5D1A068B0F5805F01D12069B0B1206A40
:1048E000411C2162216800784860E08C401E000471
:1048F000000CE084E3D12068C16821F08001C16030
:104900002068C16841F04001C160D8E7206A008892
:10491000C0F308004860206A801C2062E5E740067A
:10492000CDD55006CBD5CA68204622F04002CA60D9
:1049300084F83D3000F02BF9C1E70000A3640008C3
:1049400070B5040023D0A0693B4900283B4A3C4B8A
:104950003C4D20681DD088420CD090420AD098422D
:1049600008D0A84206D040F2731137A002F04EF8EA
:10497000A06908B3A069B0F5807F1DD0B0F5007FB5
:104980001AD0B0F5407F17D04FF4BA7111E0012072
:1049900070BD884210D090420ED098420CD0394958
:1049A000884209D03849884206D0A84204D04FF442
:1049B000BC7125A002F02AF8A06838B1B0F5805F7C
:1049C00004D04FF4BD7120A002F020F8E06938B1A6
:1049D000B0F5004F04D040F27B111BA002F016F896
:1049E00094F83D00002520B984F83C50204600F0A2
:1049F0004DF8242084F83D002068C16821F400515E
:104A0000C160204601F05EFE2068016921F49041FA
:104A100001612068416921F02A0141612068C16873
:104A200041F40051C1602564202084F83D0084F8E1
:104A30003E00002070BD0000001001400044004016
:104A400000480040001401402E2E2F447269766504
:104A500072732F53544D3332463478785F48414C4B
:104A60005F4472697665722F5372632F73746D336E
:104A700032663478785F68616C5F756172742E633A
:104A800000000000004C0040005000402DE9F047BD
:104A900086B0064614216846FBF73EFC2B49306879
:104AA000884250D12A480025016841F480210160E4
:104AB000006800F48020059025481038016841F016
:104AC0000801016000684FF4807700F008004FF0A3
:104AD00007090097CDE9049001AA02244FF00308CA
:104AE000DFF870A082E8300169465046FDF77EF895
:104AF0002002CDE9000402AA012082E801036946F0
:104B00005046FDF773F8154C13482060F804C4E9CB
:104B100001054014C4E903506561C4E906574FF428
:104B20004030C4E908052046FCF78CFE08B1FBF7CD
:104B300078FFB463002205212720A663FDF70CFB54
:104B40002720FDF7D7FA06B0BDE8F08700480040FF
:104B500040380240000C024028600240E808002073
:104B600090F83E30202B0ED159B152B190F83C3024
:104B7000012B08D0012380F83C300023036301F0AF
:104B800071BE012070470220704770477047704720
:104B9000FEE70000104810B50E4901600321416096
:104BA00000214FF400228160C0E903124FF440124B
:104BB00042610176012242768176C17601774177A2
:104BC000FCF7F8FA002803D0BDE81040FBF729BF36
:104BD00010BD00000064004078060020094808B5B8
:104BE000016841F4001101600068002200F4001027
:104BF000009005210C20FDF7AFFABDE808400C201D
:104C0000FDF778BA3038024010B59CB01C22164926
:104C10006846FBF768FB0021684602F094F9134CE4
:104C200011491C22A0621C3107A8FBF75CFB002184
:104C300007A802F088F90C49E0621C2238310EA85E
:104C4000FBF751FB00210EA802F07DF90649206315
:104C50001C22543115A8FBF746FB002115A802F0D1
:104C600072F960631CB010BDF47C000828000020BD
:104C700070B586B014216846FBF74EFB404800240F
:104C8000016841F010010160016801F01001059117
:104C9000016841F004010160016801F0040105911F
:104CA000016841F020010160016801F020010591D7
:104CB000016841F080010160016801F08001059107
:104CC000016841F001010160016801F001010591F5
:104CD000016841F002010160016801F002010591E3
:104CE000016841F040010160016801F04001059157
:104CF000016841F0080101600068032500F0080028
:104D0000059049F6DF70CDE90005694602941D481B
:104D1000FCF76CFF4FF6BF70CDE9000569460294C1
:104D20001948FCF763FF4FF6FF760096CDE9015472
:104D300069461648FCF75AFF49F6FF60CDE90005C1
:104D4000694602941248FCF751FF4FF2EF30CDE96B
:104D50000005694602940F48FCF748FF0096CDE92C
:104D6000015469460C48FCF741FF46F6FC40CDE98A
:104D70000005694602940948FCF738FF06B070BD8B
:104D80003038024000100240000802400014024087
:104D9000000002400004024000180240000C0240E3
:104DA000094810B5074901600021416040F6FF71D4
:104DB0008160FDF79FF8002803D0BDE81040FBF7A5
:104DC00030BE10BD00300040A006002010B596B0E7
:104DD00000240F9410941194129413941C2168468B
:104DE0001494FBF799FA202107A8FBF795FA2C48B1
:104DF0002A4901605321C0E9011440F2E731C0E9BA
:104E0000031444618461FDF785FF08B1FBF709FED7
:104E10004FF480500F900FA92148FEF769F908B1AF
:104E2000FBF7FFFD1E48FFF701F908B1FBF7F9FD9D
:104E3000139413A91A481494FDF7C4FE08B1FBF7A4
:104E4000F0FD6020CDE900040294039404940594DD
:104E50000822694612480694FEF7B4FF08B1FBF732
:104E6000E0FD0C2269460E48FEF7ACFF08B1FBF7E7
:104E7000D8FD0794089409944FF400500A94CDE9A2
:104E80000B4007A906480E94FDF7F8FD08B1FBF7A3
:104E9000C8FD0348FEF714FF16B010BD0000014026
:104EA000AC06002010B58EB0002407940894099435
:104EB0000A940B941C2168460C94FBF72DFA2248A7
:104EC0004FF0804101605321C0E9011442F20F719B
:104ED000C0E9031480218161FDF71CFF08B1FBF7D5
:104EE000A0FD4FF48050079007A91748FEF700F97E
:104EF00008B1FBF796FD1448FFF798F808B1FBF7E7
:104F000090FD0B940BA910480C94FDF75BFE08B1C3
:104F1000FBF787FD6020CDE9000402940822694672
:104F200009480494FEF74EFF08B1FBF77AFD0C2206
:104F300069460548FEF746FF08B1FBF772FD0248D7
:104F4000FEF7BEFE0EB010BDF406002030B58FB0E7
:104F5000002409940A940B94142104A80C94FBF7E0
:104F6000DBF92C4803940094019402940D94284991
:104F700001250E94C0E900154FF6FF71C0E902410A
:104F800004618461FDF7C6FE08B1FBF74AFD4FF4EA
:104F90008050099009A91F48FEF7AAF808B1FBF74D
:104FA00040FD1C48FEF70AFC08B1FBF73AFD04205F
:104FB00004905020CDE90504079404A915480894ED
:104FC000FFF7B4FA08B1FBF72CFDCDE900450294D8
:104FD000002269460F480394FEF794FA08B1FBF7E4
:104FE00020FD022000900190042269460948FEF746
:104FF00089FA08B1FBF715FD0D940DA905480E942B
:10500000FDF7E0FD002801D0FBF70BFD0FB030BD30
:10501000000400403C07002010B58EB00024079427
:10502000089409940A940B941C2168460C94FBF78D
:1050300073F92348214901605321C0E9011442F268
:105040000F71C0E9031480218161FDF763FE08B18F
:10505000FBF7E7FC4FF48050079007A91848FEF7CC
:1050600047F808B1FBF7DDFC1548FEF7DFFF08B194
:10507000FBF7D7FC0B940BA911480C94FDF7A2FD8C
:1050800008B1FBF7CEFC6020CDE9000402940022B9
:1050900069460B480494FEF795FE08B1FBF7C1FC86
:1050A0000C2269460648FEF78DFE08B1FBF7B9FCF5
:1050B0000348FEF705FE0EB010BD000000080040DA
:1050C000840700201CB500240E4800940C4901946C
:1050D00001605321C0E9011442F20F718461C16083
:1050E000FDF718FE08B1FBF79CFC009469460548E3
:1050F0000194FDF767FD002801D0FBF792FC1CBD71
:1051000000100040CC07002010B596B000240F948A
:1051100010941194129413941C2108A81494FBF772
:10512000FBF820216846FBF7F7F82848264901607C
:105130005321C0E9011442F20F71C0E90314446124
:105140008461FDF7E7FD08B1FBF76BFC4FF480507D
:105150000F900FA91D48FDF7CBFF08B1FBF761FCCD
:105160001A48FEF763FF08B1FBF75BFC139413A921
:1051700016481494FDF726FD08B1FBF752FC602099
:10518000CDE908040A940B940C940D94002208A90C
:105190000E480E94FEF716FE08B1FBF742FC009491
:1051A0004FF40050CDE90440029401940394694601
:1051B00006480794FDF762FC08B1FBF732FC034890
:1051C000FEF77EFD16B010BD00040140140800205B
:1051D00010B58CB000240794089409941C216846EB
:1051E0000A94FBF799F81A48184901605321C0E95D
:1051F000011442F20F71C0E9031480218161FDF7AF
:1052000089FD08B1FBF70DFC4FF48050079007A90A
:105210000F48FDF76DFF08B1FBF703FC0C48FEF7E4
:1052200005FF08B1FBF7FDFB6020CDE90004029407
:105230000022694606480494FEF7C4FD08B1FBF756
:10524000F0FB0348FEF73CFD0CB010BD00400140F0
:105250005C0800200C4810B50A4901604FF4E131A8
:105260004160002181600C22C160C0E904128161AB
:10527000C161FFF765FB002803D0BDE81040FBF7D4
:10528000D0BB10BD00480040A4080020FEE7FDF799
:1052900091F9FEE770B515460C00064603D11721BB
:1052A00008A001F0B3FB094906EB460001EB8000C2
:1052B00000210460C0E9015129462046BDE8704044
:1052C000FEF76EBF7069636B2E630000440300201D
:1052D00070B51F49C0EB001001EB80052DED028B6E
:1052E00004216868FFF770F8441C00216868FFF724
:1052F0006BF8401CFBF786F941EC180B2046FBF7D6
:1053000081F99FED141B53EC112BFBF79AF853EC2A
:10531000182BFBF708F9FBF7A5F900EE100ADFEDF3
:10532000100A0E48104980EE201ADFED0E0A80EDBB
:10533000000A21EE200A9FED0D1A10EE100A884295
:1053400001DC30EE200ABDEC028B30EE410A70BD6C
:1053500080030020000000000000594018000020D9
:105360000000C8420000B44300009B4300009B4380
:105370002DE9F0411F462DED048B90B0B0EE418A2F
:10538000DDF86880F0EE608AB0EE409A15460E00B7
:10539000044603D13D2118A001F038FB1DB93E2180
:1053A00015A001F033FB1649C4EB041001EB800497
:1053B0003C216846FAF7B0FF9FED120A01A800965B
:1053C000C8EE800A80E8A00128EE000A8DED0C9A54
:1053D0003C2269462046CDED0D0A8DED0E0AFAF706
:1053E00082FF012104F11800FBF76EFA10B0BDEC4A
:1053F000048BBDE8F081000070697463682E63005F
:105400008003002000004843324C7F202DED028BAA
:105410000025314F9FED318A4FF0FF390126A4F16D
:10542000380860613868002850DD2D4801F0DEFB47
:1054300060686FF013017F38484300EE100A294876
:10544000B8EEC00A80ED000A20687F38484300EEBD
:10545000100A2548B8EEC00A80ED000AE0687F38DF
:1054600000EB8000800000EE100A2048B8EEC00A71
:1054700080ED000A1A48807801F033FD00EE100A32
:105480004346B8EEC00A88ED010AA0697F2802DD14
:10549000DD605D6206E001DADE6001E0C3F80C90D9
:1054A00083ED018AE0697F2802DDC3F8189003E0EC
:1054B00001DA9E6100E09D6120697F2801DB5D616A
:1054C00000E05E61606901F0F3FC98600A2001F081
:1054D0002EFDA7E7600000201C00002000003443E0
:1054E000200000200C0000201000002014000020EC
:1054F000F94F08B5DFF8DC9307F1300040F2262AB7
:1055000007F10C0507F11804CDF80000D9F80000E8
:1055100000287DDDDFF8C483D8F80C0028B14646AA
:10552000012876D0411C75D0A7E1D8F810000128D9
:1055300001D0401C35D1D8F82000012831D14FF4DA
:105540002F7642F2107B00BFA968ABEB06008142C8
:105550000BD0696871B3042931D008292968A0F1FA
:105560000102096830D00A64A86041F65830A16889
:10557000304481420BD0616841B304292BD02268AA
:105580000829A0F1010112682AD01164A0604FF42B
:10559000FA7001F0CCFC323E5645D5DA0020C8F84E
:1055A0002000D8F81800411C68D0D8F81C00401C16
:1055B00018D049E02A68411E12685163D4E72A686E
:1055C000411E12689163CFE7CA63CDE72268411E8E
:1055D00012685163DAE72268411E12689163D5E7C9
:1055E000D163D3E74FF42F7642F2107BA968ABEB7F
:1055F000060081420BD06968F1B3042954D02A68AF
:105600000829A0F10101126853D01164A86002E0DA
:10561000DBE1C2E02FE141F65830A168304481421D
:105620000BD0616849B304294BD022680829A0F146
:10563000010112684AD01164A0604FF4FA7001F0C1
:1056400076FC323E5645D1DAA96842F212508142C8
:105650000BD0696879B3042940D00829296842F23F
:105660001152096841D00A64A860A16841F65650F9
:1056700081420FD0616802E011E01DE045E099B37E
:1056800004293AD02268082941F6555112683AD0C7
:105690001164A060D8F81810C8F81C1059E02968E7
:1056A000421E09684A63B1E72A68411E1268916385
:1056B000ACE7D163AAE70BE02268411E1268516390
:1056C000BAE72268411E12689163B5E7D163B3E778
:1056D000296842F2115209684A63C5E7296842F213
:1056E000115209688A63BFE701E0CA63BCE7226818
:1056F00041F6555112685163CBE7226841F6555186
:1057000012689163C5E7D163C3E7AA6842F25621E4
:105710008A420BD06A6822B3042A28D02B68082A50
:1057200042F255221B6828D01A64A960A26842F28E
:1057300012018A420BD062680AB3042A25D023687A
:10574000082A42F211021B6825D01A64A160C8F829
:105750001C000021C8F82010D8F80C10C8F8101050
:105760008BE02B6842F255221B685A63DDE72B68F9
:1057700042F255221B689A63D7E7DA63D5E72368BC
:1057800042F211021B685A63E0E7236842F21102F9
:105790001B689A63DAE7DA63D8E70020B060306903
:1057A000401C39D1A96841F6867081420BD06968E6
:1057B000A9B304293AD02A68082941F685711268EC
:1057C0003BD01164A860A16842F2E22081420BD074
:1057D000616889B3042938D02268082942F2E1219E
:1057E000126838D01164A0604FF42F7001F09FFB55
:1057F000009842F28C3182688A420BD0426862B3D0
:10580000042A30D00368082A42F28B321B6830D059
:105810001A64816001203062012030612DE0FFE7D1
:105820002A6841F6857112685163CBE72A6841F610
:10583000857112689163C5E701E0D163C2E7226810
:1058400042F2E12112685163CDE7226842F2E12180
:1058500012689163C7E7D163C5E7036842F28B32F0
:105860001B685A63D5E7036842F28B321B689A6360
:10587000CFE7DA63CDE7C8F81000D8F81810404633
:1058800011B101292CD042E0C16801293FD0491C47
:105890003DD0009A42F21C5193688B4237D0536836
:1058A00053B1042B0ED01668082B42F21B533668F6
:1058B0000ED0336491602AE0166842F21B533668BA
:1058C0007363F7E7166842F21B533668B363F1E778
:1058D000F363EFE71C0000204403002028000020B1
:1058E000C168012913D0491C11D0009942F2C42289
:1058F0008B6893420BD04B6873B1042B12D00E68A7
:10590000082B42F2C323366812D033648A6041699F
:1059100081B1012948D058E00E6842F2C3233668AD
:105920007363F3E70E6842F2C3233668B363EDE7AF
:10593000F363EBE7D8F80C00012812D0401C10D01C
:10594000B96842F2D00081423FD0796801B304299E
:1059500024D0082942F2CF0210D0396809680A64BD
:1059600032E0B96842F2F03081422ED0796849B114
:1059700004290AD0082942F2EF32EED139680968C9
:10598000CA6321E042F2EF3204E042F2EF3207E074
:1059900042F2CF02396809684A6315E042F2CF0249
:1059A000396809688A630FE0B96842F2B8408142F9
:1059B0000BD0796869B1042911D03A68082942F2FC
:1059C000B741126811D01164B860012001F0AFFA3C
:1059D0009CE53A6842F2B74112685163F4E73A68CD
:1059E00042F2B74112689163EEE7D163ECE7000041
:1059F000184D194E194FDFF868801A4CDFF868907F
:105A0000DFF868A04FF0000B286800281DDD18485B
:105A100096ED001AD7ED000A98ED000A01F0CAF8D9
:105A2000134801F011F894ED010A01F065FBE068FC
:105A3000012801D0A06802E05846C4F808B0D9F89F
:105A400000104863DAF800104863012001F06FFA93
:105A5000DAE700001C0000201400002010000020E5
:105A60000C00002028000020140800205C08002002
:105A70006C010020074C0848FCF7ACFA0020FFF747
:105A800027FC84ED000A01F07FF8012001F04FFAB5
:105A9000F1E7000028000020A006002010B55020EB
:105AA00080F31188BFF34F8FBFF36F8F02F05AF866
:105AB00018B104494FF080500860002080F311882D
:105AC00010BD000004ED00E030B593B03021684611
:105AD000FAF722FC14210CA8FAF71EFC1F48002537
